:020000040800F2
:100000000000032065100008710F0008730F00083E
:10001000750F0008770F0008790F00080000000036
:100020000000000000000000000000009137000800
:100030007B0F000800000000313800087D0F000829
:10004000B5100008B5100008B5100008B51000087C
:10005000B5100008B5100008B5100008B51000086C
:10006000B5100008B5100008B5100008B51000085C
:10007000B5100008B5100008B5100008B51000084C
:10008000B5100008B5100008B5100008B51000083C
:10009000B5100008B5100008B5100008B51000082C
:1000A000B5100008B5100008B5100008B51000081C
:1000B000B5100008B5100008B5100008B51000080C
:1000C000B5100008B5100008B5100008B5100008FC
:1000D000B5100008B5100008B5100008B5100008EC
:1000E000B5100008B5100008B5100008B5100008DC
:1000F000B5100008B5100008B5100008B5100008CC
:10010000B5100008B5100008B5100008B5100008BB
:10011000B5100008B5100008B5100008B5100008AB
:10012000B5100008B5100008B5100008B51000089B
:10013000B510000889320008B5100008B510000895
:10014000B5100008B5100008B5100008B51000087B
:10015000B5100008B5100008B5100008B51000086B
:10016000B5100008B5100008B5100008B51000085B
:10017000B5100008B5100008B51000080000000018
:10018000B5100008B5100008B5100008B51000083B
:10019000B5100008B5100008B5100008B51000082B
:0C01A000B5100008B5100008B5100008EC
:1001C00053B94AB9002908BF00281CBF4FF0FF31BE
:1001D0004FF0FF3000F00CB8ADF1080C6DE904CE23
:1001E00007F0CEFCDDF804E0DDE9022304B070473F
:1001F000704700BF00000000000000000000000089
:1002000001F0FF01102A2BDB10F0070F08D010F8C7
:10021000013B013A8B422DD010F0070F42B3F6D1CB
:10022000F0B441EA012141EA014122F007047FF0E4
:1002300000070023F0E80256083C85EA010586EA3B
:10024000010685FA47F5A3FA87F586FA47F6A5FA77
:1002500087F68EB9EED1F0BC01F0FF0102F0070283
:1002600032B110F8013B013A83EA010313B1F8D12E
:100270000020704701387047002D06BF354603380F
:10028000073815F0010F07D1013015F4807F02BF48
:10029000013015F4C03F0130F0BC0138704700BF99
:1002A000844641EA000313F003036DD1403A41D381
:1002B00051F8043B40F8043B51F8043B40F8043B40
:1002C00051F8043B40F8043B51F8043B40F8043B30
:1002D00051F8043B40F8043B51F8043B40F8043B20
:1002E00051F8043B40F8043B51F8043B40F8043B10
:1002F00051F8043B40F8043B51F8043B40F8043B00
:1003000051F8043B40F8043B51F8043B40F8043BEF
:1003100051F8043B40F8043B51F8043B40F8043BDF
:1003200051F8043B40F8043B51F8043B40F8043BCF
:10033000403ABDD2303211D351F8043B40F8043B6F
:1003400051F8043B40F8043B51F8043B40F8043BAF
:1003500051F8043B40F8043B103AEDD20C3205D37F
:1003600051F8043B40F8043B043AF9D2043208D077
:10037000D2071CBF11F8013B00F8013B01D30B88E9
:1003800003806046704700BF082A13D38B078DD0C7
:1003900010F003038AD0C3F10403D21ADB071CBF99
:1003A00011F8013B00F8013B80D331F8023B20F803
:1003B000023B7BE7043AD9D3013A11F8013B00F83C
:1003C000013BF9D20B7803704B7843708B788370C4
:1003D00060467047000000000000000000000000C0
:1003E000000000000000000000000000000000000D
:1003F00000000000000000000000000000000000FD
:1004000090F800F06DE9024520F007016FF0000C54
:1004100010F0070491F820F040F049804FF00004FC
:100420006FF00700D1E9002391F840F000F10800D7
:1004300082FA4CF2A4FA8CF283FA4CF3A2FA8CF30F
:100440004BBBD1E9022382FA4CF200F10800A4FA76
:100450008CF283FA4CF3A2FA8CF3E3B9D1E90423CA
:1004600082FA4CF200F10800A4FA8CF283FA4CF301
:10047000A2FA8CF37BB9D1E9062301F1200182FABB
:100480004CF200F10800A4FA8CF283FA4CF3A2FAC1
:100490008CF3002BC6D0002A04BF04301A4612BACF
:1004A000B2FA82F2FDE8024500EBD2007047D1E9D2
:1004B000002304F00305C4F100004FEAC50514F061
:1004C000040F91F840F00CFA05F562EA05021CBF32
:1004D00063EA050362464FF00004A9E70348044BB2
:1004E000834202D0034B03B118477047D006002067
:1004F000D0060020000000000548064B1B1AD90F4B
:1005000001EBA301491002D0034B03B11847704718
:10051000D0060020D00600200000000010B5064CD8
:10052000237843B9FFF7DAFF044B13B10448AFF364
:1005300000800123237010BDD006002000000000C1
:1005400004AD000808B5054B1BB105490548AFF3DC
:100550000080BDE80840FFF7CFBF00BF00000000EB
:10056000D406002004AD000800B170474FF05003DE
:1005700083F31188BFF36F8FBFF34F8FFEE7000047
:1005800008B504F03FF9024B1B68C01A08BD00BF54
:10059000A411002010B58EB0044605911E4B0393A4
:1005A0001E4B02931E4B00931E4B1F4A02A905F0DF
:1005B000E5FD40B14FF0500383F31188BFF36F8F17
:1005C000BFF34F8FFEE700220792089209920A922A
:1005D0000B920C920D9201238DF81C30134B089353
:1005E0001223ADF824303C23ADF81E300DF11B036F
:1005F00000934FF47A7307A9204605F0F3FD40B14C
:100600004FF0500383F31188BFF36F8FBFF34F8F09
:10061000FEE70EB010BD00BF477B0008017B00085D
:1006200000000020D10600088105000834AD000854
:1006300000B583B00023019300936A4601A905F039
:10064000EAFFA8B14FF0500383F31188BFF36F8F17
:10065000BFF34F8FFEE7019AD15C064A02EBC3025B
:1006600011710133009A9A42F5D803B05DF804FB8A
:100670000023F7E70800002010B50C460378902B04
:1006800002D0B02B13D010BDFFF7D2FF002363B10F
:100690000D4B1B88A342F6D04FF0500383F3118813
:1006A000BFF36F8FBFF34F8FFEE70133EFE7074BC9
:1006B0001B888B42E7D04FF0500383F31188BFF3C0
:1006C0006F8FBFF34F8FFEE7AC110020AE110020FB
:1006D00008B50B7803F0F003302B04D008461188DE
:1006E000FFF7CAFF08BD5068FFF73EFFFAE70000BA
:1006F00000B587B000220192029203920492059203
:100700000C4B02932023ADF80C300B4B04930C23BD
:10071000059301A905F0CAFD40B14FF0500383F3E2
:100720001188BFF36F8FBFF34F8FFEE707B05DF8FF
:1007300004FB00BF48AD00086CAD000830B585B0C3
:100740000446002501950295039505F055FF104BD1
:1007500018808DF804500F4B02932023ADF80C3015
:10076000204605F049FF03460B4A1080012201A9EB
:10077000204605F0DFFE40B14FF0500383F31188AF
:10078000BFF36F8FBFF34F8FFEE705B030BD00BFE3
:10079000AC11002048AD0008AE110020F0B58DB0BE
:1007A00000240794089409940A940B940194394BFB
:1007B0001A6B42F004021A631A6B02F004020192EF
:1007C000019A02941A6B42F080021A631A6B02F0CB
:1007D00080020292029A03941A6B42F001021A6399
:1007E0001A6B02F001020392039A04941A6B42F00E
:1007F00002021A631A6B02F002020492049A059430
:100800001A6B42F008021A631A6B02F00802059292
:10081000059A06941A6B42F040021A631B6B03F0B0
:1008200040030693069B1C4F224644F28101384642
:1008300001F0BCF8194D22464021284601F0B6F8D7
:100840004FF4005307934FF488130893099407A9B2
:10085000134800F0A7FF44F281030793012608968E
:1008600009940A9407A9384600F09CFF4023079397
:10087000089609940A9407A9284600F093FF80235C
:1008800007930894099407A9284600F08BFF0DB040
:10089000F0BD00BF003802400004024000180240D2
:1008A0000008024008B5012002F082FDFBE70000CD
:1008B000044B1868044A02FB00F001301860C0F3D2
:1008C0000E407047A8110020354E5A0170B588B00F
:1008D00006460025ADF80E50052341F288324FF44C
:1008E000FA7104A804F0CCFD02E0012C25D025BB50
:1008F000C823009342F2B3221149304607F0D8F8DA
:1009000004460128F1D0FFF7D3FF01460DF10E0296
:1009100004A804F07DFD05460128E6D00028E4D1B6
:10092000BDF80E004FF47A7303FB00F0054BA3FBF8
:100930000030800904F074F8D7E7204608B070BD95
:100940007CAD0008D34D621030B589B00546002457
:10095000ADF80E4000940194029405F04DFE344B26
:1009600018808DF80040334B01932023ADF80830F8
:10097000052341F288324FF4FA7104A804F080FD97
:100980002B4B1B8801226946284605F06EFC68B98E
:10099000284605F01EFE90B90023CBB10023012CA0
:1009A0003CD00BB1002CEBD009B030BD4FF0500360
:1009B00083F31188BFF36F8FBFF34F8FFEE74FF0C4
:1009C000500383F31188BFF36F8FBFF34F8FFEE7A0
:1009D000194A02EBC3021279802A01D00133DCE705
:1009E000FFF766FF01460DF10E0204A804F010FDAA
:1009F0000446012810D008B10123D0E7BDF80E004D
:100A00004FF47A7303FB00F00C4BA3FB003080091A
:100A100004F006F80123C2E70123C0E74FF05003BA
:100A200083F31188BFF36F8FBFF34F8FFEE700BFD3
:100A3000AC11002048AD000808000020D34D621022
:100A400010B596B000231593149314AB1593FFF7CC
:100A500097FD354B18604AE04FF0500383F311883F
:100A6000BFF36F8FBFF34F8FFEE74FF0500383F359
:100A70001188BFF36F8FBFF34F8FFEE76846FFF714
:100A80005DFE684605F0A5FD50B9684605F073FDAA
:100A900078B915A807F022F8012813D1002320E027
:100AA0004FF0500383F31188BFF36F8FBFF34F8F65
:100AB000FEE74FF0500383F31188BFF36F8FBFF34E
:100AC0004F8FFEE74FF0500383F31188BFF36F8F12
:100AD000BFF34F8FFEE7154A02EBC302802111716D
:100AE0000133002BF7D041F2883003F099FF15A8AD
:100AF000FFF7ECFE0128AFD115A96846FFF74AFDC4
:100B00006846FFF721FF0024042CB7D86846FFF79A
:100B1000EFFD684605F05DFD0028A6D14FF4FA70A0
:100B200003F07EFF0134EFE7A4110020080000204D
:100B300000B583B000230193009380220349044849
:100B400003F0D5FD03B05DF804FB00BFB0AD0008B5
:100B5000410A000872B6FEE710B51448144B036052
:100B6000144B00221A7080215970E1219970DA70BB
:100B70001A715A7143604FF4000383600E4BC360D7
:100B80000E4B036140F2F453436100F01DFD58B970
:100B90000B4C38220021204608F058FE2123236008
:100BA0004FF44003636110BDFFF7D4FF70090020CC
:100BB000008002402C0900200C080020EC060020D8
:100BC0003409002008B50A480A4B03604FF4E133AA
:100BD000436000238360C36003610C224261836130
:100BE000C36101F049FB00B908BDFFF7B3FF00BFC7
:100BF0006C0F00200048004008B50B484FF0A043A0
:100C00000360042343600222C26000230361826107
:100C10000122C26103624362C262036300F0CCFE40
:100C200000B908BDFFF796FF600A002000B595B037
:100C30003022002108A808F009FE00230393049342
:100C40000593069307930193204A116C41F080515C
:100C50001164126C02F080520192019A02931C4BB3
:100C60001A6842F440421A601B6803F4404302933E
:100C7000029B012308934FF4A023099302230E93B0
:100C80004FF480020F9204221092A8221192129324
:100C90000723139308A800F027FF98B90F230393A5
:100CA00002230493002305934FF4A05306934FF4BB
:100CB00080530793052103A801F080F920B915B0EE
:100CC0005DF804FBFFF746FFFFF744FF00380240E2
:100CD0000070004008B500F015FAFFF7A7FFFFF716
:100CE0005DFDFFF739FFFFF76DFFFFF785FF02F0AE
:100CF000D3FA064A0021064802F0FCFA054B1860B8
:100D000002F0DCFAFFF714FFFCE700BFC8AD0008F3
:100D1000A50800086C09002000B583B000220092ED
:100D20000D4B596C41F480415964596C01F4804178
:100D3000009100990192196C41F0805119641B6C6B
:100D400003F080530193019B0F216FF0010000F02D
:100D50002BFA03B05DF804FB00380240F0B58DB00B
:100D600000230793089309930A930B9302683D4B62
:100D70009A4201D00DB0F0BD00240094A3F5904339
:100D80001A6B42F000721A631A6B02F00072009242
:100D9000009A01941A6B42F080621A631A6B02F097
:100DA00080620192019A02941A6B42F000621A6307
:100DB0001A6B02F000620292029A03941A6B42F0DC
:100DC00004021A631A6B02F004020392039A049459
:100DD0001A6B42F001021A631A6B02F001020492CC
:100DE000049A05941A6B42F002021A631A6B02F01D
:100DF00002020592059A06941A6B42F040021A63A9
:100E00001B6B03F040030693069B322307930227D4
:100E1000089703260A960B250B9507A9124800F0A0
:100E2000C1FC86230793089709940A960B9507A996
:100E30000E4800F0B7FC4FF400530793089709944D
:100E40000A960B9507A90A4800F0ACFC4FF4205312
:100E50000793089709940A960B9507A9054800F08F
:100E6000A1FC87E700800240000802400000024029
:100E7000000402400018024000B589B0002303932B
:100E800004930593069307930268154B9A4202D088
:100E900009B05DF804FB0021019103F5F8331A6CE9
:100EA00042F480221A641A6C02F480220192019AA0
:100EB00002911A6B42F008021A631B6B03F00803DD
:100EC0000293029B4FF44073039302230493032382
:100ED00006930723079303A9024800F063FCD7E7B2
:100EE00000480040000C024070B588B00023039316
:100EF00004930593069307930368B3F1A04F01D0C1
:100F000008B070BD00250195174C236B43F0010319
:100F10002363236B03F001030193019B4FF4E85318
:100F2000039302230493032306930A2307930F4E8C
:100F300003A9304600F036FC4FF400730393049588
:100F4000059503A9304600F02DFC636B43F0800348
:100F500063630295636C43F480436364636C03F4DE
:100F600080430293029BCBE700380240000002401E
:100F7000FEE7FEE7FEE7FEE7FEE7704708B500F094
:100F8000DBF803F01DFF012800D108BD02F082FC50
:100F9000FBE70120704708B508F0E6FC1623036064
:100FA0004FF0FF3008BD08B54FF0FF31FFF7F3FFFA
:100FB000FEE770B50C461646002506E0AFF300804C
:100FC000214601F8010B01350C46B542F6DB3046EF
:100FD00070BD70B50C461646002504E014F8010BF0
:100FE000AFF300800135B542F8DB304670BD4FF0FD
:100FF000FF3070474FF400534B60002070470120D2
:10100000704700207047000010B503460C4A0D4998
:101010000D48006840B10C4800680344521A9342DE
:1010200006D8094A136010BD0748084C0460F2E76F
:1010300008F09AFC0C2303604FF0FF30F3E700BF89
:101040000000032000040000B0110020805F002099
:10105000034AD2F8883043F47003C2F888307047EE
:1010600000ED00E0DFF834D00D480E490E4A0023B1
:1010700002E0D458C4500433C4188C42F9D30B4A4C
:101080000B4C002301E013600432A242FBD3FFF7B4
:10109000DFFF08F06FFCFFF71DFE70470000032024
:1010A00000000020D00600206CBA0008D006002006
:1010B000805F0020FEE7000010B504460E4B1A7852
:1010C0004FF47A73B3FBF2F30C4A1068B0FBF3F001
:1010D00000F0A2F868B90F2C01D901200AE0002223
:1010E00021464FF0FF3000F05FF8054B1C600020F8
:1010F00000E0012010BD00BF1400002010000020FF
:101100001800002008B50B4B1A6842F400721A60F0
:101110001A6842F480621A601A6842F480721A6097
:10112000032000F02FF80F20FFF7C6FFFFF7F4FDB4
:10113000002008BD003C0240034A1168034B1B78A5
:101140000B441360704700BFB4110020140000204E
:10115000014B1868704700BFB411002038B5044631
:10116000FFF7F6FF0546B4F1FF3F02D0044B1B78B2
:101170001C44FFF7EDFF401BA042FAD338BD00BF6F
:1011800014000020074AD36823F4E0631B041B0CFF
:10119000000200F4E060034343F0BF6343F4003314
:1011A000D360704700ED00E000B5194BDB68C3F376
:1011B0000223C3F1070CBCF1040F28BF4FF0040C4D
:1011C00003F1040EBEF1060F18D9033B4FF0FF3EAA
:1011D0000EFA0CFC21EA0C0199400EFA03FE22EAF9
:1011E0000E020A4300280BDB1201D2B200F160406C
:1011F00000F5614080F800235DF804FB0023E5E77B
:1012000000F00F001201D2B2024B1A54F4E700BFF3
:1012100000ED00E014ED00E00138B0F1807F0BD26A
:101220004FF0E0235861054AF02182F82310002096
:10123000986107221A6170470120704700ED00E0B5
:101240005079137943EA002307480B50D0789378FC
:101250001B0443EA0063507843EA002312781343E7
:10126000024A8B50704700BF4080024044800240D9
:1012700030B4002208E0C468DC6051F80C3043F45C
:10128000400341F80C300132032A20D8C16802EB38
:10129000C2034FEAC30C01EBC303002441F80C4026
:1012A0005C609C60DC6002F10C0440F8243051F872
:1012B0000C4044F4801441F80C40022ADBD8541C42
:1012C00004EBC404C56805EBC404DC60D5E7002367
:1012D0000364C268036803F580531A6130BC704729
:1012E00000B54FF0000E03E00269DA600EF1010E66
:1012F000BEF1030F29D801690EEBCE034FEAC30CF0
:1013000001EBC303002241F80C205A609A60DA60B6
:101310001A625A624FF0004241F80C2044F2F8522F
:101320005A605A6822F000425A600EF1180240F8E2
:101330002230BEF1020FD7D801690EF1010202EB93
:10134000C20201EBC201D960D0E700234367836783
:10135000C0F88030C0F8843003670269036803F581
:101360008053DA605DF804FB70B505460C460268F0
:1013700013683B491940237C002B60D14FF40003D4
:10138000607C00285DD14FF480000343A0680343D4
:10139000E07F43EA004360690343A07F002852D105
:1013A0004FF400500343207F43EA0033A069034316
:1013B000207943EA802394F82000002845D14FF497
:1013C00000700343E07B43EAC013606A034394F870
:1013D000280043EA00130B4313602B681E680120AA
:1013E000FFF7BCFE2B681E6029688A6922F0BE02E6
:1013F0001204120CA36C1B0494F84C0038BB802020
:101400000343206D034394F85500012821D00020A8
:10141000034394F8560001281DD00020034394F89C
:101420005400012819D00020034313438B612B681B
:101430009C690120FFF792FE2B689C6170BD002320
:101440009EE70020A1E70020ACE70020B9E70020DC
:10145000D6E70820DCE70420E0E70220E4E700BF4D
:101460000F8120FF70B505460C46026802F58053D7
:101470009B692B491940237B002B4DD14FF0806392
:10148000607B43EA4063607F002847D14FF48010BF
:101490000343A07B43EA405360690343207F43EA50
:1014A000C013A07F43EA8013206A034394F824000A
:1014B00043EA80030B4302F5805293612B6803F5E6
:1014C00080539E690120FFF749FE2B6803F5805386
:1014D0009E612279A36843EA4263A26913432269A9
:1014E000134394F8252043EAC213A26A43EA820315
:1014F000226813432A6843F4000302F58052136004
:101500002B6803F580531C680120FFF727FE2B682A
:1015100003F580531C6070BD0023B1E70020B7E7DE
:10152000233FDEF870B5A4B0064601258DF83C5087
:101530008DF83D5000240D948DF84B408DF84A50A5
:101540008DF848408DF830508DF84C408DF83B4078
:1015500014948DF854401D948DF878401F948DF8A4
:1015600082408DF880404FF4804310934FF4006325
:1015700011938DF881400BA9FFF7F6FE8DF80C5002
:101580008DF80D508DF81D508DF80E5005948DF886
:101590001C408DF81E4008948DF824508DF804509E
:1015A0004FF4803302934FF4800306934FF40053BB
:1015B00004938DF825500A94009469463046FFF74D
:1015C00051FF24B070BD0000002857D030B583B063
:1015D0000446D0F89C30002B34D000230193284BD4
:1015E0005A6C42F480425A645B6C03F4804301936A
:1015F000019B244B5A6822F400025A605A68A16881
:101600000A435A605B68236803F580531A6842F006
:1016100001021A60FFF79CFD0546236803F580531D
:101620001B6813F0010F13D0FFF792FD401BB0F5BC
:10163000FA7FF2D90423C4F8A030E023C4F89C3028
:10164000012019E02323C0F89C30FFF787FBC4E793
:101650002046FFF767FF2046FFF70AFE2046FFF708
:101660003FFE626800212046FFF7EAFD0020C4F833
:10167000A0001023C4F89C3003B030BD0120704797
:101680000038024000380140704770477047000042
:1016900010B50446036803F58052526912F0400FFA
:1016A00005D003F58052D26912F0400F47D123686C
:1016B00003F58052526912F0010F05D003F58052F4
:1016C000D26912F0010F41D1236803F580525269AB
:1016D00012F4004F28D003F58052D26912F4004F63
:1016E00022D0D4F8A02042F00802C4F8A02003F5CC
:1016F0008052526912F4005F31D003F580535A6969
:1017000022F07F4222F4010222F45F4222F0FF0223
:10171000C4F8A420DA6922F4C032DA61E023C4F804
:101720009C302046FFF7B0FF23689A6B12F0080F39
:101730001FD11A4B5B6913F4002F26D110BD03F59E
:101740008053174A5A6101F05FFDB0E703F58053FB
:101750004FF001125A61204601F076FDB4E703F51F
:1017600080535A6948F280610A40C4F8A420596144
:10177000D7E7DB6A03F06003C4F8AC302046FFF71C
:1017800084FF0023C4F8AC30D3E7044B4FF40022AD
:101790005A612046FFF77AFFD0E700BF003C0140C6
:1017A0004000010000230F2B00F2F68070B582B0DC
:1017B00066E085684FEA430E032404FA0EF425EA36
:1017C0000405CC6804FA0EF42C438460446824EACF
:1017D00002044A68C2F300129A40224342605DE06C
:1017E000DC08083450F8242003F00705AD004FF062
:1017F0000F0E0EFA05FE22EA0E0E0A69AA4042EA10
:101800000E0240F824205DE0092200E0002202FAE6
:101810000EF22A430234614D45F82420604A946850
:101820006FEA0C0224EA0C054E6816F4801F01D002
:101830004CEA04055A4CA560E46802EA04054E68C7
:1018400016F4001F01D04CEA0405554CE5606468AD
:1018500002EA04054E6816F4003F01D04CEA040584
:101860004F4C6560246822404D6815F4803F01D0DC
:101870004CEA04024A4C226001330F2B00F28A80AA
:1018800001229A400C6804EA020C32EA0404F3D103
:101890004C6804F00304013C012C8AD94A6802F028
:1018A0000302032A09D0C4685D000322AA4024EA87
:1018B00002048A68AA402243C2604A6802F0030216
:1018C000022A8DD004684FEA430E032202FA0EF278
:1018D00024EA02044A6802F0030202FA0EF22243EA
:1018E00002604A6812F4403FC6D0002201922D4A9D
:1018F000546C44F480445464526C02F4804201926B
:10190000019A9C08A51C254A52F8255003F0030EA5
:101910004FEA8E0E0F2202FA0EF225EA0205224A43
:1019200090423FF473AF02F58062904222D002F5FC
:101930008062904220D002F5806290421ED002F573
:10194000806290421CD002F5806290421AD002F56B
:101950008062904218D002F58062904216D002F563
:101960008062904214D002F5806290423FF44CAF06
:101970000A224CE701224AE7022248E7032246E70F
:10198000042244E7052242E7062240E707223EE719
:1019900008223CE702B070BD704700BF003801402C
:1019A000003C014000380240000002400AB1816161
:1019B000704709048161704770B58AB0002800F053
:1019C00090800546046890F8BD343BB3032385F846
:1019D000BD34E36B13F4807F01D100232B612868B1
:1019E00000F0E7FC2C4654F8106BEC460FCCACE84A
:1019F0000F000FCCACE80F0094E803008CE8030064
:101A00002B1D0ECB304600F08FFC044658B102234C
:101A100085F8BD34012420460AB070BD80F8BC347E
:101A2000FFF762FAD2E70021286800F0F9FD2346AB
:101A300016E003EBC30205EB8202012182F83D10A0
:101A400082F83C30A2F84430002182F840109164C2
:101A5000D16403EBC30205EB820251650133DBB2B3
:101A600069688B42E5D316E004EBC40305EB8303FE
:101A7000002283F87D2283F87C4283F88022C3F819
:101A80008822C3F88C2204EBC40305EB8303C3F85C
:101A900094220134E4B2A142E6D82C4654F8106BEB
:101AA000EC460FCCACE80F000FCCACE80F0094E88C
:101AB00003008CE803002B1D0ECB304600F0D6FC53
:101AC000044620B1022385F8BD340124A3E7002396
:101AD00085F83830012385F8BD34286800F08EFD84
:101AE00099E7012497E70000002800F0E08170B535
:101AF00082B00446036813F0010F3BD09F4B9B68F4
:101B000003F00C03042B2CD09C4B9B6803F00C03BC
:101B1000082B21D06368B3F5803F4FD0B3F5A02FD9
:101B200052D0964B1A6822F480321A601A6822F456
:101B300080221A606368002B50D0FFF709FB05462E
:101B40008E4B1B6813F4003F14D1FFF701FB401BC1
:101B50006428F5D90320B1E1884B5B6813F4800F4A
:101B6000D8D0864B1B6813F4003F03D06368002B6A
:101B700000F09F81236813F0020F54D07F4B9B68C5
:101B800013F00C0F3ED07D4B9B6803F00C03082B29
:101B900033D0E368002B68D0794B01221A60FFF73D
:101BA000D7FA0546754B1B6813F0020F54D1FFF7A7
:101BB000CFFA401B0228F5D903207FE16F4A136852
:101BC00043F480331360B5E76C4B1A6842F480220B
:101BD0001A601A6842F480321A60ABE7FFF7B8FA6D
:101BE0000546664B1B6813F4003FC3D0FFF7B0FAFD
:101BF000401B6428F5D9032060E1604B5B6813F457
:101C0000800FC6D15D4B1B6813F0020F03D0E36851
:101C1000012B40F05081594A136823F0F8032169E1
:101C200043EAC1031360236813F0080F42D06369CD
:101C30006BB3534B0122C3F8802EFFF789FA054698
:101C40004E4B5B6F13F0020F34D1FFF781FA401B4C
:101C50000228F5D9032031E1484A136823F0F8033C
:101C6000216943EAC1031360DDE7454B00221A6096
:101C7000FFF76EFA0546414B1B6813F0020FD2D0F6
:101C8000FFF766FA401B0228F5D9032016E13C4B0A
:101C90000022C3F8802EFFF75BFA0546374B5B6FD7
:101CA00013F0020F06D0FFF753FA401B0228F5D9B4
:101CB000032003E1236813F0040F77D02F4B1B6C34
:101CC00013F0805F33D1002301932C4B1A6C42F048
:101CD00080521A641B6C03F080530193019B012511
:101CE000284B1B6813F4807F23D0A368012B34D0CA
:101CF000052B38D0214B1A6F22F001021A671A6F98
:101D000022F004021A67A368002B3DD0FFF720FAE7
:101D100006461A4B1B6F13F0020F46D1FFF718FA55
:101D2000801B41F288339842F3D90320C6E0002596
:101D3000D6E7144A136843F480731360FFF708FA78
:101D40000646104B1B6813F4807FCED1FFF700FAD4
:101D5000801B0228F5D90320B0E0084A136F43F036
:101D600001031367CFE7054B1A6F42F004021A67AD
:101D70001A6F42F001021A67C5E700BF003802403F
:101D80000000474200700040FFF7E2F90646524B60
:101D90001B6F13F0020F08D0FFF7DAF9801B41F236
:101DA00088339842F3D9032088E0EDB9A369002B6A
:101DB00000F08380484A926802F00C02082A51D051
:101DC000022B17D0454B00221A66FFF7C1F90446D3
:101DD000414B1B6813F0007F42D0FFF7B9F9001B9D
:101DE0000228F5D9032069E03B4A136C23F08053A5
:101DF0001364DBE7394B00221A66FFF7A9F90546A1
:101E0000354B1B6813F0007F06D0FFF7A1F9401B8C
:101E10000228F5D9032051E0E369226A1343626A7C
:101E200043EA8213A26A5208013A43EA0243E26A91
:101E300043EA0263284A5360284B01221A66FFF7DF
:101E400087F90446244B1B6813F0007F06D1FFF787
:101E50007FF9001B0228F5D903202FE000202DE098
:101E600000202BE0012B2BD01B4B5B6803F480017F
:101E7000E269914226D103F03F02216A8A4223D1CE
:101E8000616A47F6C0721A40B2EB811F1ED103F49B
:101E90004031A26A5208013AB1EB024F18D103F067
:101EA0007063E26AB3EB026F14D1002006E00120F8
:101EB0007047012002E0012000E0002002B070BD68
:101EC0000120FBE70120F9E70120F7E70120F5E712
:101ED0000120F3E70120F1E700380240000047420B
:101EE00008B5334B9B6803F00C03042B5BD0082B25
:101EF0005BD12F4B5A6802F03F025B6813F4800FEE
:101F00002CD02B4B5868C0F388104FEA401CBCEB18
:101F1000000C6EEB0E0E4FEA8E1343EA9C634FEA01
:101F20008C11B1EB0C0163EB0E03DB0043EA517340
:101F3000C90011EB000C43F10003590200234FEAE2
:101F40004C2041EADC51FEF73BF9194B5B68C3F3C7
:101F5000014301335B00B0FBF3F027E0144B5868FA
:101F6000C0F388104FEA401CBCEB000C6EEB0E0E69
:101F70004FEA8E1343EA9C634FEA8C11B1EB0C01DC
:101F800063EB0E03DB0043EA5173C90011EB000C55
:101F900043F10003990200234FEA8C2041EA9C514F
:101FA000FEF70EF9D1E7034800E0034808BD00BF83
:101FB0000038024000127A000024F400002800F0EB
:101FC0009B8070B50D4604464F4B1B6803F00F0312
:101FD0008B4208D2CBB24C4A1370136803F00F0344
:101FE0008B4240F08B80236813F0020F17D013F060
:101FF000040F04D0454A936843F4E0539360236888
:1020000013F0080F04D0414A936843F4604393608F
:102010003E4A936823F0F003A1680B439360236862
:1020200013F0010F32D06368012B21D09A1E012AD0
:1020300025D9364A126812F0020F61D033498A68F6
:1020400022F0030213438B60FFF782F806462F4B02
:102050009B6803F00C036268B3EB820F16D0FFF7A6
:1020600077F8801B41F288339842F0D9032042E090
:10207000264A126812F4003FE0D101203BE0234AD7
:10208000126812F0007FD9D1012034E01E4B1B688A
:1020900003F00F03AB4207D9EAB21B4B1A701B685F
:1020A00003F00F03AB422DD1236813F0040F06D0C9
:1020B000164A936823F4E053E1680B439360236866
:1020C00013F0080F07D0114A936823F46043216985
:1020D00043EAC1039360FFF703FF0C4B9B68C3F314
:1020E00003130B4AD35CD8400A4B18600A4B18689C
:1020F000FEF7E2FF002070BD012070470120FAE7E3
:102100000120F8E70120F6E7003C024000380240D9
:10211000ECAD00081000002018000020014B1868EA
:10212000704700BF1000002008B5FFF7F7FF044B11
:102130009B68C3F38223034AD35CD84008BD00BF29
:1021400000380240FCAD000808B5FFF7E7FF044B7C
:102150009B68C3F34233034AD35CD84008BD00BF39
:1021600000380240FCAD000810B50446026813694F
:1021700023F44053C1680B431361836802691A4317
:1021800043691A43C3691A430168CB6823F41643B1
:1021900023F00C031343CB600268536923F44073AC
:1021A00081690B4353610368314A934206D002F5BB
:1021B0008062934202D0FFF7B7FF01E0FFF7C4FF50
:1021C000E369B3F5004F29D00021031849411B18DA
:1021D00041F10001C90041EA5371DB00181863683E
:1021E0004FEA83024FEA937341F10001FDF7E8FFE4
:1021F000204AA2FB00314909642303FB11031B01A0
:102200003233A2FB03235B0903F0F00202EB01125D
:1022100003F00F03216813448B6010BD00230218E4
:1022200043EB0301121841F10001C90041EA527168
:10223000D200101841F10001626892185B41FDF76D
:10224000BFFF0C4AA2FB00314909642303FB1103C1
:10225000DB003233A2FB03235B095A0002F4F8725D
:1022600002EB011203F00703216813448B60D4E7EB
:10227000001001401F85EB5158B310B5044690F88B
:102280003D300BB3242384F83D302268D36823F417
:102290000053D3602046FFF767FF2268136923F4D9
:1022A000904313612268536923F02A035361226823
:1022B000D36843F40053D36000202064202384F8C3
:1022C0003D3084F83E3010BD80F83C30FEF7D4FD40
:1022D000D8E701207047000082B000230193019BE2
:1022E00001330193019A0F4B9A4215D80369002BD1
:1022F000F5DA00230193036943F001030361019BB5
:1023000001330193019A074B9A4208D8036913F0ED
:10231000010FF4D1002000E0032002B07047032039
:10232000FBE700BF400D030084B010B5044603A8CE
:1023300080E80E00089B012B1FD1A36B23F4803390
:10234000A363E36823F4840323F04003E360E368BA
:1023500023F44013E3600F9B012B09D02046FFF7C5
:10236000BBFF069B012B1BD0BDE8104004B070479B
:10237000E36843F48013E360F0E7E36843F040036D
:10238000E3602046FFF7A8FF0C9B23B9A36B43F43F
:102390008033A363E5E7A36B23F48033A363E0E713
:1023A000A36843F00603A360A36843F02003A3607F
:1023B000DAE7836823F001038360002070470000A0
:1023C00082B000230193019B01330193019A0F4BCB
:1023D0009A4215D80369002BF5DA0023019389018D
:1023E00041F020010161019B01330193019A074BE8
:1023F0009A4208D8036913F0200FF4D1002000E0BE
:10240000032002B070470320FBE700BF400D03002C
:1024100082B000230193019B01330193019A0E4B7B
:102420009A4213D80369002BF5DA00230193102395
:102430000361019B01330193019A074B9A4208D82B
:10244000036913F0100FF4D1002000E0032002B064
:1024500070470320FBE700BF400D0300D0F80038B1
:102460001943C0F8001800207047000084B02DE91F
:10247000F041044607A880E80E00002306E003F1BF
:10248000400204EB82020021516001330E2BF6D989
:10249000119F27BBD4F8043843F00203C4F8043872
:1024A000A36B43F40013A363A36B23F40023A36380
:1024B000A36B23F48023A3630023C4F8003E04F538
:1024C0000065D4F80038C4F800380C9B012B14D1F7
:1024D000099B6BB900212046FFF7C0FF11E0A36BF9
:1024E00023F40013A363A36B43F40023A363E3E784
:1024F00001212046FFF7B2FF03E003212046FFF74A
:10250000ADFF10212046FFF75BFF804608B14FF07A
:1025100001082046FFF77CFF08B14FF001080023B7
:102520002B616B61EB610AE0C3B94FF00060C2F848
:10253000000900220A614FF67F328A600133079951
:10254000994210D904EB431202F51061D2F8000948
:102550000028E9DB0020C2F80009EAE74FF09040CC
:10256000C2F80009E5E700230AE0C3B14FF0904C40
:10257000C2F800CB002202614FF67F328260013345
:10258000994211D904EB431202F53060D2F8006B86
:10259000002EEADB4FF0000CC2F800CBEAE74FF068
:1025A000006CC2F800CBE5E72B6923F480732B6144
:1025B0000023A3616FF0804363610A9B1BB9A36989
:1025C00043F01003A361A2690B4B1343A3610D9B5E
:1025D0001BB1A36943F00803A361012F04D0404657
:1025E000BDE8F04104B07047A36943F0804343F075
:1025F0000403A361F3E700BF00383C80D0F8003E3D
:1026000023F00303C0F8003ED0F8043843F002037F
:10261000C0F8043800207047406900F0010070479E
:1026200038B50546C36823F0C043C360012913D001
:1026300019BBC36843F08043C36000240120FEF748
:102640008DFD01342846FFF7E7FF08B1312CF5D99D
:10265000322C14D0002038BDC36843F00053C3604F
:1026600000240120FEF77AFD01342846FFF7D4FF4D
:102670000128EDD0312CF4D9EAE70120EBE7012065
:10268000E9E70020704700207047002070470020D5
:1026900070470020704770B50C4616461D46FFF780
:1026A000F8FF20B924B1C4F8A060C4F8A45070BDEC
:1026B0000120FCE770B50C4616461D46FFF7E9FF02
:1026C00020B924B1C4F8A860C4F8AC5070BD012092
:1026D000FCE770B50C4616461D46FFF7DAFF20B939
:1026E00024B1C4F8B060C4F8B45070BD0120FCE758
:1026F000014B1868704700BFB8110020014B1868E3
:10270000704700BFBC11002038B504460D46FFF7E6
:10271000F5FF10B994F9003073B994F90030062B25
:102720000BD000F03BF8012812D000232A462146A6
:102730000948006801F0EFFB38BD012000F01AF8ED
:10274000054B186801F0C1FD0028EAD00120F3E72D
:10275000002DEAD00025E8E7C011002000B583B0C5
:102760008DF80000002101916846FFF7CDFF03B00E
:102770005DF804FB084A137843F00103137020B19D
:10278000DBB243F0020313707047034B1A786FF308
:1027900041021A70704700BFC411002010B502F04A
:1027A00009FB0446FFF7A4FF844201D0002010BDBE
:1027B0000120FCE78842A8BF08467047884228BF2E
:1027C00008467047431E13F1030F09D80AB1836905
:1027D00043B190F82730C9B28B4205D00020704732
:1027E000002070470020704701207047F8B505466B
:1027F0000F4619B3436FB0F85220B3FBF2F2013A1F
:10280000032A06D81F4850F8321000EBC200426875
:1028100001E050221421E86E30B903FB01F11A489F
:10282000A0FB01014909E966296F41B903FB02F2E6
:102830001549A1FB021252092A6700E0836F043395
:1028400023F0030404F1140001F06CF9064650B1C2
:102850000023036043608360C360036104616FB160
:10286000E8673046F8BD95F84A3043F0080385F82C
:102870004A300821284600F069FBF2E7C5F88000DD
:10288000EFE700BF04AE00081F85EB5138B50446E2
:102890000D4601220621FFF795FFF8B194F84A3062
:1028A00013F0080F1DD194F85930EBB1082B1ED04E
:1028B000092B1FD094F8493013F0400F1DD1F5B10A
:1028C000D4F880300BB1012018E000212046FFF73A
:1028D0008DFFD4F88030A3B101200FE06FF0150018
:1028E0000CE06FF00B0009E06FF07F0006E06FF086
:1028F0007F0003E06FF07F0000E0002038BD002083
:10290000FCE76FF00B00F9E738B5044690F8273084
:10291000062B12D0A3691BB104F1080000F0CAFE17
:1029200094F82730112B26D0606808B100F06EFEB5
:10293000204601F075F9002038BDD0F8840008B1B8
:1029400000F03CFC04F1EC0000F016FCE06F08B174
:1029500001F066F9D4F8800008B101F061F9204671
:1029600000F00EF8D6E7E36CDD68284600F0A2FE22
:10297000284600F023FC236C002BF4D1D4E70000A0
:1029800038B5858C90F85930012B02D0164BDB6896
:1029900016E0154BDC68154B9C4223D0E068646858
:1029A00090F85930012BF6D0838CAB42F3D190F8DC
:1029B000483013F0060FEED0FFF7A6FFEBE75B6899
:1029C0000A4A93420ED0DA6892F859100129F6D1DA
:1029D000918CA942F3D1B2F854100029EFD00139FB
:1029E000A2F8541038BD00BFD8110020E01100201B
:1029F00010B50446806A20B100231A46194601F03A
:102A00008AFAE36A0BB120469847236B2BB1226800
:102A1000C2F3032112F4706F09D1216801F07F0124
:102A20002160606800B149B90023236010BDA26B2A
:102A30000A43A263186800F0A3FDEEE700F0A0FDD2
:102A4000F2E72DE9F04F89B005468A460392994690
:102A500001220621FFF7B6FE002800F09A8019F047
:102A6000010B03D0BAF1000F00F09680E86F00B3BD
:102A700000F088F90646002427461DE095F84A3004
:102A800013F0080F48D16FF07F0606E00093012293
:102A90004021686800F0CDFC044614F0400F46D099
:102AA00014F0210F3BD16FF00306304609B0BDE8AA
:102AB000F08F0026DFE74646002EEED195F859301C
:102AC000002BDBD0083BDBB2012BD7D957B9EB6920
:102AD0000793002BDAD019F0100FDED105A802F011
:102AE000F9F8012707A905A802F01CF9804600287B
:102AF000D3D1079B0093002301226121686800F075
:102B000098FC044610F0400FC7D1E86F0028D2D0DF
:102B100000F038F90646CFE76FF00B06BDE724F06A
:102B20004001686800F02CFD6FF00306BDE7002E41
:102B3000BBDDBBF1000F26D1C9F380030093039BDB
:102B400052460021E86F00F089F9064695F94830B1
:102B5000002BAADAE86F00F00FF92B6F8342A4D89C
:102B600095F848306FF3C71385F8483095F8493029
:102B700043F0010385F849300123A5F850300620C1
:102B8000FFF7ECFD91E75146E86F00F010F90646BB
:102B90008BE76FF0150688E76FF0150685E72DE9DE
:102BA000F04F89B005468A46164603929B46114669
:102BB000FFF76CFE002802DC09B0BDE8F08FD5F805
:102BC000800000F0D3F8044657464FF0000851E06B
:102BD00001F010FE95F8483043F0400385F8483086
:102BE0004FF0010901E04FF0000923463A46002169
:102BF000D5F8800000F0EAF80446B9F1000F20D1C2
:102C00000123A5F85030FFF7C9FDE8B1361B40D0CD
:102C1000BAF1000F3DD02744B8F1000F18D12B6A4C
:102C20000793FFF7BBFD08B100230793079B83B30E
:102C30001BF0100F2DD105A802F04CF84FF0010841
:102C40000BE001F071FEDBE70620FFF787FDDDE713
:102C500007A905A802F066F8D8B9079B00930023DE
:102C600001222221686800F0E4FBD5F8800000F022
:102C70007DF80446002CCFDDB44200DD344695F8E3
:102C8000483013F0100FAED0B442A1D04FF000097D
:102C9000ABE7039B981B8FD195F85930052B02D9D0
:102CA0006FF07F0088E76FF01B0085E738B50446BA
:102CB0000D4601220621FFF785FD98B394F859309F
:102CC0000BB1082B31D129464FF6FF70FFF772FD8B
:102CD000A4F8560094F8483013F0080F1CD0E06FA9
:102CE00008B100F055F8D4F8800008B100F050F8B1
:102CF0004622002104F18A0006F0A8FDC02200212E
:102D000004F1EC0006F0A2FD0023A36494F848301F
:102D100043F0080384F848300121204600F016F9FA
:102D2000002038BD6FF05E00FBE76FF05E00F8E753
:102D300008B590F82730062B04D1C06F28B100F0F9
:102D400021F808BD6FF01500FBE70020F9E70369E3
:102D50001A44521A501E834200D8C01A70470369A1
:102D60009818401A834200D8C01A704708B5816885
:102D70000268FFF7ECFF08BD08B5C1680268FFF7FD
:102D8000E6FF08BD08B582680168FFF7E8FF08BDE7
:102D9000002383600360C360436070470368C91AFF
:102DA000D21A914201D90020704701207047F8B52E
:102DB00005460E46044654F8147BFFF7E3FF3C44F7
:102DC00034602969C91BFFF7F9FCF8BD2DE9F84308
:102DD00004460D4617461E46FFF7C8FFA84232D9E3
:102DE000401B3146FFF7EAFC804648B3A66825B190
:102DF0002E442369B34200D8F61A7FB120694146B8
:102E0000801BFFF7DBFC814606F1100020444A4698
:102E100039460430FDF744FAC84516D801F0EAFCFB
:102E20002DB946442369B34200D8F61AA660E1687A
:102E300032462046FFF7B2FF00B1E66001F074FDB4
:102E40004046BDE8F8830020CBE7A8EB090207EB7A
:102E5000090104F11400FDF723FADFE72DE9F84337
:102E600005460C4617461E46FFF78CFFA0422DD99B
:102E7000001B3146FFF7A2FC064620B3D5F80080C0
:102E80002CB1A0442B69434501D8A8EB030887B1B6
:102E900028693146A0EB0800FFF790FC814608F155
:102EA00010012944024604313846FDF7F9F94E4530
:102EB0000ED8089B3BB934B908EB06032A699A423D
:102EC00000D89B1A2B603046BDE8F8830020D0E77D
:102ED000A6EB090205F1140107EB0900FDF7E0F983
:102EE000E7E710B5044601F08DFCA06694F8493080
:102EF0006FF3820384F84930DBB26FF3410384F847
:102F00004930002384F8603001F07CFC606610BD1D
:102F100010B50446044B186818B1A04201D0FFF761
:102F2000F3FC014B1C6010BDEC11002010B50446F1
:102F3000054B186828B1A04203D0B0F85610FFF72F
:102F4000B5FE014B1C6010BDF01100202DE9F843C7
:102F500004460D4690F85970042F05D9082F01D06A
:102F6000012302E0002300E00023042D07D9082DEF
:102F700002D04FF0010904E04FF0000901E04FF0EA
:102F80000009BA1E022A01D8082D14D04B457DD065
:102F900094F8483013F004020FD013F0080F2BD12F
:102FA000E66D5EB94FF0500383F31188BFF36F8F66
:102FB000BFF34F8FFEE70123E8E72646B9F1000F84
:102FC0004ED0002A3ED0DEB1F36DBBB1336843F082
:102FD00004033360726B12F0010F02D043F480736C
:102FE0003360D6F8DC3043B396F8483013F0080F5E
:102FF00026D04FF0000804E02646DFE7F465E5E759
:10300000B0460022E26594F8483062F3820384F807
:103010004830DBB243F0020384F84830D4F8DC30A7
:1030200013B1B8F1000F2FD094F8590000F070F8E8
:1030300078BB0023A4F850302BE04FF00008E0E705
:10304000B046DEE7236843F008032360626B12F0AA
:10305000020F13D043F4007323604FF00008DDE744
:10306000336843F020033360726B12F0040F08D012
:1030700043F4806333604FF00008CFE74FF000085F
:10308000CCE74FF00008C9E7A046CDE726464FF051
:103090000008B5B1082D14D084F85950082D28D057
:1030A0002046FFF71EFFB8F1000F04D0D8F8DC303F
:1030B00049464046984716B13046FFF799FCBDE8AF
:1030C000F88394F8483013F0060FE5D013F0080F9A
:1030D000E2D1FFF763FB40B94FF0500383F311884F
:1030E000BFF36F8FBFF34F8FFEE72046FFF710FF50
:1030F000D2E794F8483013F0080FD1D0033F012FE6
:10310000CED8002384F859302046FFF70FFFC7E7D9
:103110000B2809D840F68133C34013F0010F01D1C9
:103120000120704700207047012070474A60936873
:103130008B605960916008610368013303607047D8
:1031400010B50446836A13B1183000F0B3FA0023B7
:103150002360A3606361E36B1BB104F12C0000F0FA
:10316000A9FA044800F1080204F12C01FFF7DEFF80
:1031700010BD00BFF411002070B50646002406E023
:1031800006F19005AB68B3F1FF3F0BD00134012C81
:103190000CDC002CF4D006F1A405F3E7EB68D8684A
:1031A000FFF7CEFF2B68002BF8D1EFE770BD20B101
:1031B00008B50E3800F034FD08BD704710B5044660
:1031C0008069FFF7F4FF0023A361E36100F0F2FAE6
:1031D00022690B4B9A4208D02146184600F046FA65
:1031E000002400F009FB14B110BD0124F9E700230D
:1031F0001A4619460348006800F08DFEF4E700BF48
:10320000081200201C12002000B585B00023039393
:103210000C4B186890B103AB0093002301221146B8
:1032200001F032FE039B4BB14FF0E0234FF0805290
:10323000C3F8042DBFF34F8FBFF36F8F05B05DF858
:1032400004FB00BF2012002000B585B000230393CB
:103250000C4B186890B103AB0093002301220221AC
:1032600001F012FE039B4BB14FF0E0234FF0805270
:10327000C3F8042DBFF34F8FBFF36F8F05B05DF818
:1032800004FB00BF2012002008B50248FEF700FA38
:1032900008BD00BF24120020EFF305832BB9064BB5
:1032A000186828B901221A6070476FF0050070474E
:1032B0004FF0FF30704700BF70150020EFF305831B
:1032C00073B90A4B1B68012B0DD110B50024084BB4
:1032D000DC77064B02221A6001F03EFA204610BD50
:1032E0006FF0050070474FF0FF30704770150020F9
:1032F00000ED00E0F0B587B000240594EFF30584FD
:1033000074BB68B322B31568936903B918235C1EB4
:10331000372C49D8546814F0010F47D156696EB163
:103320004FEA960C94682CB1D7685B2F02D91769C5
:1033300007B1C6B92CB14FF0FF340EE04FF0800C4E
:10334000F0E7D4688CB9146994B14FF0FF3404E00D
:103350001546002418234FF0800C012C0AD0ACB184
:10336000059807B0F0BD0124F7E74FF0FF34F4E70C
:103370000024F2E7146992680292019400930B46CC
:103380006246294601F078F90590E9E705AA01921D
:1033900000930B461FFA8CF2294601F0A8F9012888
:1033A000DED000230593DBE70020DAE70020D8E732
:1033B00008B5EFF3058333B908B9002008BD01F063
:1033C0002FFB0020FAE76FF00500F7E7034B0360DF
:1033D000034B0B6080231360704700BF141500205F
:1033E00014130020034B0360034B0B604FF48073F6
:1033F0001360704774190020741500201AB9084230
:1034000005D110467047814303D00020704701204A
:1034100070470120704738B5202000F083FB044638
:1034200028B1002540F8045B00F012F9257720460A
:1034300038BD2DE9F84378B10C4616461D460746BF
:1034400011F07F4811D04FF0500383F31188BFF380
:103450006F8FBFF34F8FFEE74FF0500383F3118858
:10346000BFF36F8FBFF34F8FFEE741B94FF05003AB
:1034700083F31188BFF36F8FBFF34F8FFEE701F027
:103480009FFC50B9089B43B14FF0500383F3118860
:10349000BFF36F8FBFF34F8FFEE701F0ABF9D7F8A3
:1034A00000902A4621464846FFF7A8FFF0B116B122
:1034B00029EA04033B6001F037FAB8F1000F12D09B
:1034C00048B94FF0E0234FF08052C3F8042DBFF30A
:1034D0004F8FBFF36F8F01F0CBFC814610F0007F60
:1034E0001AD029F07F494846BDE8F883089B83B18C
:1034F00066B941460DB141F08061089A2143381DFB
:1035000001F016FBC146DDF82080D4E74FF0807152
:10351000F0E7DDF82080CEE700F04CF9D7F8009016
:103520002A4621464846FFF769FF18B116B129EA35
:1035300004043C6000F060F9D3E770B170B50C464C
:10354000054611F07F4F11D04FF0500383F31188DF
:10355000BFF36F8FBFF34F8FFEE74FF0500383F33E
:103560001188BFF36F8FBFF34F8FFEE700F022F992
:103570002E6826EA04042C6000F03EF9304670BD47
:10358000F8B568B10D46044611F07F4711D04FF0F1
:10359000500383F31188BFF36F8FBFF34F8FFEE7A4
:1035A0004FF0500383F31188BFF36F8FBFF34F8F3A
:1035B000FEE700F10C0601F01DF9206923682B439A
:1035C00023600AE0216832EA010105D111E0216897
:1035D00041F0007101F03AFB2846B0420ED0456838
:1035E000036823F07F4213F0806FEBD12168114212
:1035F000F2D013F0807FEAD01743E8E7236823EA8C
:103600000703236001F090F92068F8BD10B5044667
:1036100001F0F0F8636893B1206904F10C0398425B
:1036200004D04FF0007101F011FBF3E74FF05003AD
:1036300083F31188BFF36F8FBFF34F8FFEE7237FB4
:1036400013B101F071F910BD204600F0E9FAF8E776
:1036500000F1080343604FF0FF328260C3600361F2
:1036600000230360704700230361704743684B6089
:103670009A688A6051609960086103680133036049
:10368000704730B40D68B5F1FF3F11D000F1080369
:103690001C465B681A68AA42FAD963684B60996055
:1036A0008C606160086103680133036030BC70475F
:1036B0000469F2E70369416882688A604168516081
:1036C0005A68824206D0002202611A68013A1A60E2
:1036D0001868704782685A60F5E7000082B00023DE
:1036E00001930D4B1B68B3F1FF3F08D04FF050031F
:1036F00083F31188BFF36F8FBFF34F8FFEE74FF057
:10370000500383F31188BFF36F8FBFF34F8F019B7B
:10371000002BFCD002B070471C0000200848006855
:10372000006880F308884FF0000080F3148862B6C8
:1037300061B6BFF34F8FBFF36F8F00DF00BF000094
:1037400008ED00E0DFF80C00016841F47001016051
:103750007047000088ED00E04FF0807340F8043CB3
:1037600021F0010140F8081C054B40F80C3C40F8E2
:10377000202C6FF0020340F8243C4438704700BF0F
:10378000DD3600080000000000000000000000001E
:10379000074B19680868B0E8F04F80F30988BFF359
:1037A0006F8F4FF0000080F311887047AFF30080F7
:1037B000385600204FF0500383F31188BFF36F8F0A
:1037C000BFF34F8F0B4A136801331360012B00D0F6
:1037D00070474FF0E023D3F8043D13F0FF0FF7D00C
:1037E0004FF0500383F31188BFF36F8FBFF34F8FF8
:1037F000FEE700BF1C000020094B1B6843B94FF0D7
:10380000500383F31188BFF36F8FBFF34F8FFEE731
:10381000013B034A13600BB983F31188704700BF63
:103820001C0000200000000000000000000000005C
:10383000EFF30980BFF36F8F154B1A681EF0100F5E
:1038400008BF20ED108A20E9F04F10602DE9090033
:103850004FF0500080F31188BFF34F8FBFF36F8F8D
:1038600001F004F94FF0000080F3118809BC1968D9
:103870000868B0E8F04F1EF0100F08BFB0EC108AD7
:1038800080F30988BFF36F8F704700BFAFF30080EC
:103890003856002008B54FF0500383F31188BFF36A
:1038A0006F8FBFF34F8F00F0B3FF28B14FF0E023CD
:1038B0004FF08052C3F8042D002383F3118808BD14
:1038C0004FF0E022002313619361054B1B6805490B
:1038D000A1FB03139B09013B53610723136170474D
:1038E00010000020D34D62104FF0E023D3F8002DDC
:1038F0003D4B9A421CD04FF0E023D3F8002D3B4BB8
:103900009A421ED030B583B0394B1A78D2B20192A8
:10391000FF221A701B78DBB28DF803309DF803305C
:1039200003F05003334A1370334B07221A601BE035
:103930004FF0500383F31188BFF36F8FBFF34F8FA6
:10394000FEE74FF0500383F31188BFF36F8FBFF38F
:103950004F8FFEE7284A1368013B13609DF8033040
:103960005B00DBB28DF803309DF8033013F0800F5D
:10397000F0D1214B1B68032B08D04FF0500383F389
:103980001188BFF36F8FBFF34F8FFEE71B021A4AF8
:10399000136003F4E0631360019BDBB2144A1370FD
:1039A0004FF0E024D4F8203D43F47003C4F8203DE8
:1039B000D4F8203D43F07043C4F8203DFFF780FF6A
:1039C00000250E4B1D60FFF7BDFED4F8343F43F0D9
:1039D0004043C4F8343FFFF7A1FE01F047F8FFF77A
:1039E0007DFE284603B030BD71C20F4170C20F4149
:1039F00000E400E0D0190020D41900201C000020B1
:103A0000EFF305830F2B0FD9114A9B5CDBB2114AF0
:103A100012789A4208D94FF0500383F31188BFF30C
:103A20006F8FBFF34F8FFEE74FF0E023D3F80C3DCD
:103A300003F4E063084A1268934208D94FF0500338
:103A400083F31188BFF36F8FBFF34F8FFEE770478B
:103A5000F0E300E0D0190020D4190020124A12F03F
:103A6000070F1ED0D11D21F00701C1F5705313447B
:103A70000A460E480260002141601344083B23F0CF
:103A800007030B48036059601960991A516013606D
:103A9000084B1960084B1960084B4FF000421A6040
:103AA00070474FF47053E4E7DC190020F055002014
:103AB000D8190020E4550020E0550020DC550020F6
:103AC000164B1A461B688342FBD3516802EB010C6C
:103AD000844509D0416800EB010C634509D00360BF
:103AE000904219D010607047406801445160104600
:103AF000F0E710B40A4C2468A3420BD05B68194469
:103B0000416013681B680360904200D010605DF84C
:103B1000044B70470460F7E7704700BFF055002082
:103B2000D819002070B5054600F064FE364B1B68BE
:103B3000A3B1364B1B681D424ED135B1083515F087
:103B4000070F02D025F007050835002D46D0304B71
:103B50001B68AB4251D32F4A146804E0FFF77EFF85
:103B6000E7E722461C466368AB4202D22368002B7B
:103B7000F7D1254B1B68A34241D01668083623684D
:103B8000136063685B1B102B10D9601910F0070FCE
:103B900008D04FF0500383F31188BFF36F8FBFF34A
:103BA0004F8FFEE743606560FFF78AFF6268184940
:103BB0000B689B1A0B60184909688B4201D21649A1
:103BC0000B60124B1B681343636000232360134A8E
:103BD00013680133136002E0002600E0002600F0C5
:103BE000A3FE16F0070F0CD04FF0500383F311889B
:103BF000BFF36F8FBFF34F8FFEE70026EFE700267E
:103C0000EDE7304670BD00BFD8190020DC5500201C
:103C1000E0550020F0550020E4550020E855002034
:103C2000002834D038B50446A0F1080550F8043C0B
:103C3000174A1268134208D14FF0500383F31188DA
:103C4000BFF36F8FBFF34F8FFEE750F8081C41B1F1
:103C50004FF0500383F31188BFF36F8FBFF34F8F83
:103C6000FEE723EA020340F8043C00F0C3FD54F8E9
:103C7000041C084A13680B4413602846FFF720FF12
:103C8000054A13680133136000F04EFE38BD7047DB
:103C9000DC550020E0550020EC55002010B504460E
:103CA000FFF788FDA26BE36B9A4204D00024FFF774
:103CB000A3FD204610BD0124F9E710B50446FFF727
:103CC00079FDA36B23B90124FFF796FD204610BDB3
:103CD0000024F9E770B504461546866B026C5AB9A4
:103CE00003681BB100200136A66370BD806801F037
:103CF00077F80023A360F6E76DB94068FCF7D0FAC7
:103D0000226C636813446360A268934219D32368EA
:103D100063602846E7E7C068FCF7C2FA226C5142AC
:103D2000E3689B1AE3602268934202D2A3680B44C3
:103D3000E360022D01D00020D5E726B1013E00202E
:103D4000D1E72846CFE70020CDE70346026C6AB1F1
:103D500010B50846D9681144D9609C68A14201D3C6
:103D60001968D960D968FCF79BFA10BD704738B55F
:103D70000546FFF71FFD95F8454064B201E0013CA0
:103D800064B2002C0ADD6B6A43B105F1240000F037
:103D900017FF0028F3D001F007F8F0E7FF2385F8BC
:103DA0004530FFF729FDFFF705FD95F8444064B263
:103DB00001E0013C64B2002C0ADD2B6943B105F13E
:103DC000100000F0FDFE0028F3D000F0EDFFF0E75A
:103DD000FF2385F84430FFF70FFD38BD38B5E0B15B
:103DE0000D460446FFF7E6FC2368E26B216C01FBFD
:103DF0000230A0600020A0636360013A02FB01333F
:103E0000E360FF2384F8443084F84530FDB923692A
:103E100063B9FFF7F1FC012038BD4FF0500383F385
:103E20001188BFF36F8FBFF34F8FFEE704F11000CF
:103E300000F0C6FE0028ECD04FF0E0234FF0805297
:103E4000C3F8042DBFF34F8FBFF36F8FE1E704F189
:103E50001000FFF7FDFB04F12400FFF7F9FBD8E7A2
:103E600038B51D46049C0B4649B92460E0632364C1
:103E700001212046FFF7B2FF84F84C5038BD226084
:103E8000F4E740B94FF0500383F31188BFF36F8F0D
:103E9000BFF34F8FFEE710B584B01C46844653B184
:103EA00092B189B94FF0500383F31188BFF36F8F3C
:103EB000BFF34F8FFEE74FF0500383F31188BFF33A
:103EC0006F8FBFF34F8FFEE76AB150230393039BBD
:103ED000502B13D04FF0500383F31188BFF36F8F33
:103EE000BFF34F8FFEE70029EFD04FF0500383F36D
:103EF0001188BFF36F8FBFF34F8FFEE7039B012342
:103F000084F8463000949DF818306046FFF7A8FF0B
:103F1000204604B010BDF0B585B0019288B10F46BF
:103F20001D460446B1B1022D20D1E36B012B1DD0FB
:103F30004FF0500383F31188BFF36F8FBFF34F8FA0
:103F4000FEE74FF0500383F31188BFF36F8FBFF389
:103F50004F8FFEE7036C002BE5D04FF0500383F347
:103F60001188BFF36F8FBFF34F8FFEE700F028FF7C
:103F7000064658B9019B002B48D04FF0500383F3FD
:103F80001188BFF36F8FBFF34F8FFEE700263DE030
:103F90002A4639462046FFF79DFE636A7BB948B141
:103FA0004FF0E0234FF08052C3F8042DBFF34F8F42
:103FB000BFF36F8FFFF720FC012005B0F0BD04F1C7
:103FC000240000F0FDFD0028F4D04FF0E0234FF076
:103FD0008052C3F8042DBFF34F8FBFF36F8FE9E713
:103FE000FFF70AFC0020E8E702A800F08FFE012698
:103FF00019E0002384F8443021E0002384F84530A0
:1040000023E02046FFF7B3FE00F08EFCFFF7D2FB63
:10401000A26BE36B9A42BBD3022DB9D0019B002B5C
:10402000DED0002EE0D0FFF7E7FB00F0E3FBFFF768
:10403000C1FB94F8442052B2B2F1FF3FD9D094F8BA
:10404000452052B2B2F1FF3FD7D0FFF7D5FB01A90F
:1040500002A800F067FED8B92046FFF71FFE00282F
:10406000CFD0019904F1100000F04AFD2046FFF77F
:104070007EFE00F059FC0028C8D14FF0E0234FF03D
:104080008052C3F8042DBFF34F8FBFF36F8FBDE78E
:104090002046FFF76CFE00F047FC00208DE72DE97D
:1040A000F84390B10F4616461C460546B1B1022CA6
:1040B00020D1EB6B012B1DD04FF0500383F31188FF
:1040C000BFF36F8FBFF34F8FFEE74FF0500383F3C3
:1040D0001188BFF36F8FBFF34F8FFEE7036C002B88
:1040E000E5D04FF0500383F31188BFF36F8FBFF318
:1040F0004F8FFEE7FFF784FCEFF311884FF050037A
:1041000083F31188BFF36F8FBFF34F8FAA6BEB6BF5
:104110009A4206D3022C04D0002088F31188BDE80F
:10412000F88395F845904FFA89F9AB6B22463946EA
:104130002846FFF7CFFDB9F1FF3F06D009F1010393
:104140005BB285F845300120E7E76B6A0BB90120C7
:10415000E3E705F1240000F033FD18B126B101209A
:104160003060DAE70120D8E70120D6E7F0B585B066
:10417000019290B10F460446C1B100F021FE0646FF
:1041800000BB019B002B5ED04FF0500383F31188DE
:10419000BFF36F8FBFF34F8FFEE74FF0500383F3F2
:1041A0001188BFF36F8FBFF34F8FFEE7036C002BB7
:1041B000E3D04FF0500383F31188BFF36F8FBFF349
:1041C0004F8FFEE700263EE039462046FFF7BDFD53
:1041D000013DA563236923B9FFF70EFB012005B05C
:1041E000F0BD04F1100000F0EBFC0028F4D04FF01B
:1041F000E0234FF08052C3F8042DBFF34F8FBFF37D
:104200006F8FE9E7FFF7F8FA0020E8E702A800F06F
:104210007DFD012621E0002384F8443029E00023BD
:1042200084F845302BE02046FFF7A1FD00F07CFB31
:1042300009E02046FFF79BFD00F076FB2046FFF7E4
:104240003CFD00283FD1FFF7B5FAA56B002DBBD18F
:10425000019B002BD6D0002ED8D0FFF7CDFA00F06E
:10426000C9FAFFF7A7FA94F844305BB2B3F1FF3F05
:10427000D1D094F845305BB2B3F1FF3FCFD0FFF718
:10428000BBFA01A902A800F04DFD0028D1D12046BB
:10429000FFF713FD0028C6D0019904F1240000F0B7
:1042A0002FFC2046FFF763FD00F03EFB0028CAD13B
:1042B0004FF0E0234FF08052C3F8042DBFF34F8F2F
:1042C000BFF36F8FBFE7002089E740B110B5044608
:1042D000FFF770FAA46BFFF78FFA204610BD4FF07E
:1042E000500383F31188BFF36F8FBFF34F8FFEE747
:1042F0000023072B0CD8074A52F833200AB10133A8
:10430000F7E7044A42F8331002EBC30250607047EB
:10431000704700BFF855002070B504460D4616469C
:10432000FFF748FA94F844305BB2B3F1FF3F0DD089
:1043300094F845305BB2B3F1FF3F0BD0FFF75CFA66
:10434000A36B5BB12046FFF712FD70BD002384F81C
:104350004430EDE7002384F84530EFE73246294644
:1043600004F1240000F010FCECE70000084B1B688F
:104370001B6823B9074B4FF0FF321A607047044B9C
:104380001B68DB68DB685A68024B1A60704700BF25
:104390003C560020E45A00202DE9F04780460D46A7
:1043A00017469946089EDDF824A00A9C9200A52194
:1043B000206B05F04BFA236B07F18042013A03EBC7
:1043C000820727F00707A5B34FF0000CBCF10F0FD1
:1043D00009D815F80C3004EB0C0282F8343013B114
:1043E0000CF1010CF2E7002384F84330372E00D99A
:1043F0003726E662E66400252565201DFFF733F9C0
:1044000004F11800FFF72FF92461C6F13806A66100
:104410006462656584F858504A4641463846FFF75D
:104420009BF92060BAF1000F01D0CAF80040BDE846
:10443000F087002384F83430D8E7000038B5002432
:1044400007E004EB840293000E481844FFF700F9DC
:104450000134372CF5D90C4D2846FFF7F9F80B4CF1
:104460002046FFF7F5F80A48FFF7F2F80948FFF78A
:10447000EFF80948FFF7ECF8084B1D60084B1C608B
:1044800038BD00BF44560020B85A0020CC5A002046
:10449000F05A00201C5B0020085B00203C560020E6
:1044A0004056002010B50446FFF784F9224A1368ED
:1044B00001331360214B1B685BB1214B1B686BB947
:1044C0001E4B1B68DA6AE36A9A4207D81B4B1C60D2
:1044D00004E01A4B1C601368012B29D0194A136899
:1044E000013313606364E06A174B1B68984201D97B
:1044F000154B186000EB8000211D144B03EB80006E
:10450000FFF7B4F8FFF778F90D4B1B687BB10B4B45
:104510001B68DA6AE36A9A4209D24FF0E0234FF04F
:104520008052C3F8042DBFF34F8FBFF36F8F10BDC0
:10453000FFF784FFD2E700BFA45A002038560020BE
:10454000045B0020B05A0020B45A002044560020DA
:1045500010B5044690F8593063B1012B11D0022BED
:104560000ED04FF0500383F31188BFF36F8FBFF36A
:104570004F8FFEE7006BFFF753FB2046FFF750FB22
:1045800010BDFFF74DFBFBE70F4B1B68D3B110B518
:10459000FFF710F90D4BDB68DC68201DFFF78AF888
:1045A0000B4A1368013B1360074A1368013B136011
:1045B000FFF722F92046FFF7CBFF034B1B68002BC8
:1045C000E6D110BD704700BFA85A00201C5B002038
:1045D000A45A002008B5FFF7D7FF074B1B68012B33
:1045E000F9D94FF0E0234FF08052C3F8042DBFF308
:1045F0004F8FBFF36F8FEEE74456002070B504462F
:104600000D46174B1E68174B18680430FFF752F819
:10461000B4F1FF3F0DD03444124B1B685C60A642DE
:1046200010D9114B18680F4B19680431FFF729F89E
:1046300070BD002DEFD00B4B196804310B48FFF70C
:1046400015F8F5E70A4B1868064B19680431FFF7AF
:1046500018F8084B1B68A342EAD9064B1C60E7E731
:10466000305B00203856002040560020085B0020B8
:104670003C560020E45A002030B587B00B9C7CB13A
:104680000C9DB5B15C250495049D5C2D1AD04FF0AE
:10469000500383F31188BFF36F8FBFF34F8FFEE793
:1046A0004FF0500383F31188BFF36F8FBFF34F8F29
:1046B000FEE74FF0500383F31188BFF36F8FBFF312
:1046C0004F8FFEE7049D0C9D2C63022485F8594012
:1046D00000240394029505AC01940A9C0094FFF712
:1046E0005BFE0C98FFF7DEFE059807B030BD2DE9A4
:1046F000F04385B00746884614461E469000FFF7F3
:1047000011FA00B381465C20FFF70CFA0546B0B100
:10471000C0F83090E5B1002385F859300393029535
:104720000D9B01930C9B009333462246414638462D
:10473000FFF732FE2846FFF7B5FE012005E04846A8
:10474000FFF76EFAE6E74FF0FF3005B0BDE8F08303
:104750004FF0FF30F9E7000010B588B00024059451
:10476000069407AA06A905A8FEF730FE059B02934A
:10477000069B019300942346079A18491848FFF7AF
:104780007BFF184B186040B100F084FC012806D074
:10479000B0F1FF3F18D008B010BD0020F6E74FF091
:1047A000500383F31188BFF36F8FBFF34F8F0E4B0E
:1047B0004FF0FF321A600D4B01221A600C4B0022A1
:1047C0001A60FFF791F8E6E74FF0500383F3118882
:1047D000BFF36F8FBFF34F8FFEE700BF24AE00081B
:1047E000D5450008E05A0020E45A0020045B002070
:1047F000305B0020024A136801331360704700BF2A
:10480000AC5A0020014B1868704700BF305B002095
:10481000F8B53A4B1B68002B69D1394B1D6801353F
:104820001D60C5B9374B1B681B6843B14FF050037F
:1048300083F31188BFF36F8FBFF34F8FFEE7314AC9
:104840001168314B186810601960304A13680133E1
:104850001360FFF78BFD2E4B1B68AB423DD9002741
:104860002C4B1B68DB6A03EB83039A002A4B9B5893
:10487000012B00D90127294B1B68002B3CD00127B5
:104880003AE001271F4B1B681B6843B31D4B1B6895
:10489000DB68DC6863689D4226D3261D3046FEF740
:1048A00009FFA36A1BB104F11800FEF703FFE36AD6
:1048B0001B4A1268934201D9194A136003EB830320
:1048C0009A00314614481044FEF7D0FEE26A114BBC
:1048D0001B68DB6A9A42D4D2D4E70027D2E70C4B9C
:1048E0004FF0FF321A60BBE7094A1360B8E70D4A80
:1048F00013680133136000273846F8BDAC5A002016
:10490000305B00203C56002040560020E85A002032
:10491000E45A00203856002044560020345B002022
:10492000B45A0020EC5A002038B5354B1B6843B907
:104930004FF0500383F31188BFF36F8FBFF34F8F96
:10494000FEE7FEF737FF2E4B1A68013A1A601B6824
:10495000002B4FD12B4B1B680BB900244BE00024DC
:10496000294B1B681BB3284BDB68DC6804F118007B
:10497000FEF7A0FE251D2846FEF79CFEE06A234BAD
:104980001B68984201D9214B186000EB8000294632
:104990001F4B03EB8000FEF769FEE26A1D4B1B68AC
:1049A000DB6A9A42DCD31C4B01221A60D8E70CB1B7
:1049B000FFF7DCFC194B1C6884B9174B1C68D4B199
:1049C0004FF0E0234FF08052C3F8042DBFF34F8F18
:1049D000BFF36F8F01240EE0013C07D0FFF718FFF3
:1049E0000028F9D00C4B01221A60F5E70B4B00228E
:1049F0001A60E2E70024FEF7FFFE204638BD00BF44
:104A0000AC5A0020A45A0020F05A0020B45A0020CA
:104A10004456002038560020345B0020EC5A002019
:104A200010B5A8B10446104B1B6843B14FF05003BA
:104A300083F31188BFF36F8FBFF34F8FFEE7FFF74C
:104A4000D9FE00212046FFF7D9FDFFF76DFF48B9D9
:104A50004FF0E0234FF08052C3F8042DBFF34F8F87
:104A6000BFF36F8F10BD00BFAC5A00201F4B1B68F7
:104A70001BB11F4B01221A6070471D4B00221A60A8
:104A80001C4B1B6803EB83018A001B498A585AB9E7
:104A90000BB1013BF6E74FF0500383F31188BFF3EE
:104AA0006F8FBFF34F8FFEE703EB830082000A4452
:104AB00050684068506003EB830C4FEA8C02083268
:104AC000114488420BD003EB830291000A4A0A4446
:104AD0005268D168094A1160064A136070474068FD
:104AE00062469100044A0A445060ECE7AC5A002048
:104AF000345B0020B45A0020445600203856002071
:104B000058B110B50C46094A11681831FEF7B9FDC5
:104B100001212046FFF772FD10BD4FF0500383F3D3
:104B20001188BFF36F8FBFF34F8FFEE73856002019
:104B300070B110B514460246114B1B688BB94FF08B
:104B4000500383F31188BFF36F8FBFF34F8FFEE7DE
:104B50004FF0500383F31188BFF36F8FBFF34F8F74
:104B6000FEE7084B186841F000418161196818316F
:104B70001046FEF77BFD01212046FFF73FFD10BDEB
:104B8000AC5A00203856002038B570B10D46144696
:104B90000A4A11681831FEF769FD0CB14FF0FF3574
:104BA00021462846FFF72AFD38BD4FF0500383F316
:104BB0001188BFF36F8FBFF34F8FFEE73856002089
:104BC00038B5C368DC6824B304F118052846FEF73D
:104BD00071FD184B1B682BBB251D2846FEF76AFD8F
:104BE000E06A154B1B68984201D9134B186000EB23
:104BF00080002946114B03EB8000FEF737FDE26A87
:104C00000F4B1B68DB6A9A4211D901200D4B1860CB
:104C100038BD4FF0500383F31188BFF36F8FBFF39C
:104C20004F8FFEE729460848FEF720FDE7E7002002
:104C3000EEE700BFAC5A0020B45A002044560020D2
:104C400038560020345B0020F05A002038B51C4B49
:104C50001B6843B94FF0500383F31188BFF36F8F84
:104C6000BFF34F8FFEE741F000410160C468F4B12B
:104C7000FEF720FD251D2846FEF71CFDE06A114BBE
:104C80001B68984201D90F4B186000EB8000294641
:104C90000D4B03EB8000FEF7E9FCE26A0B4B1B684F
:104CA000DB6A9A4202D90A4B01221A6038BD4FF0E2
:104CB000500383F31188BFF36F8FBFF34F8FFEE76D
:104CC000AC5A0020B45A0020445600203856002028
:104CD000345B002060B110B50446FEF76BFD094B54
:104CE0001B682360084B1B686360FEF785FD10BDE1
:104CF0004FF0500383F31188BFF36F8FBFF34F8FD3
:104D0000FEE700BFE85A0020305B0020034B1B6821
:104D10000360034B1B684360704700BFE85A0020E4
:104D2000305B0020F8B5C8B10C460546F9B1FEF776
:104D300041FD1B4B19686B68C81A2268B2F1FF3F2E
:104D400026D0184E36682F68B74201D08B4224D93E
:104D5000824215D80023236001241AE04FF050034B
:104D600083F31188BFF36F8FBFF34F8FFEE74FF0D0
:104D7000500383F31188BFF36F8FBFF34F8FFEE7AC
:104D80005B1A134423602846FFF7C0FF002400E0AD
:104D90000024FEF731FD2046F8BD0124F9E700BFED
:104DA000305B0020E85A0020014B01221A60704756
:104DB000345B0020014B1868704700BF3856002054
:104DC000054B1B6833B1054B1B680BB100207047C6
:104DD0000220704701207047045B0020AC5A00207D
:104DE00000283BD038B504461E4B1B68834208D0D0
:104DF0004FF0500383F31188BFF36F8FBFF34F8FD2
:104E0000FEE7036D43B94FF0500383F31188BFF3FE
:104E10006F8FBFF34F8FFEE7013B0365C16AC26C22
:104E200091421DD00BB1002038BD051D2846FEF76C
:104E300041FCE06CE062C0F13803A3610A4B1B68DF
:104E4000984201D9084B186000EB80002946074BB7
:104E500003EB8000FEF70AFC0120E5E70020704725
:104E60000020E1E738560020B45A002044560020C4
:104E7000044A136898691368DB6A1268C3F138033F
:104E8000936170473856002010B32DE9F0410E466B
:104E900014461D460746FEF7B3FDEFF311834FF0AE
:104EA000500282F31188BFF36F8FBFF34F8F984684
:104EB0000DB17B6D2B6097F85830DBB2022287F87A
:104EC0005820042C1FD8DFE804F02B0C1116190011
:104ED0004FF0500383F31188BFF36F8FBFF34F8FF1
:104EE000FEE77A6D32437A6501241AE07A6D013269
:104EF0007A65012415E07E65012412E0022B17D0AB
:104F00007E6501240DE07A6DB2F1FF3F12D04FF0C3
:104F1000500383F31188BFF36F8FBFF34F8FFEE70A
:104F20000124012B08D088F311882046BDE8F081C8
:104F30000024F6E70124F4E7BB6A43B14FF05003C5
:104F400083F31188BFF36F8FBFF34F8FFEE7154BCD
:104F50001B680BBB3D1D2846FEF7ACFBF86A124BE5
:104F60001B68984201D9104B186000EB800029465D
:104F70000E4B03EB8000FEF779FBFA6A0C4B1B68C3
:104F8000DB6A9A42CFD9069B13B10123069A1360BC
:104F9000084B01221A60C6E707F118010648FEF720
:104FA00065FBEAE7AC5A0020B45A002044560020C2
:104FB00038560020345B0020F05A0020064B1A6857
:104FC00013682BB90123036023B9D36818687047AD
:104FD0000023F8E700207047385B002008B54160E7
:104FE000006191420CD8D21A83699A4201D3012000
:104FF00008BD011D094B1868FEF743FB0020F7E7C9
:105000009A4201D2994206D2011D054B1868FEF75B
:1050100038FB0020ECE70120EAE700BF3C5B002002
:10502000385B002030B583B0FEF7C4FB114B1B6822
:105030001BB1FEF7E1FB03B030BD0F4D2846FEF774
:1050400007FB0E4C2046FEF703FB0D4B1D600D4B7E
:105050001C60002300930C4B0C4A10210A20FEF721
:1050600010FF044B18600028E3D00949FFF740F90E
:10507000DFE700BF5C5C0020E05B0020F45B002009
:10508000385B00203C5B00200C5C0020405B002073
:105090002CAE000810B588B0FFF7C4FF124B1B6898
:1050A000CBB100240594069407AA06A905A8FEF72B
:1050B00099F9059B0293069B0193022300932346D3
:1050C000079A0A490A48FFF7D7FA0A4B186010B145
:1050D000012008B010BD4FF0500383F31188BFF3D7
:1050E0006F8FBFF34F8FFEE75C5C002034AE00088B
:1050F000F9530008605C0020B8B19C46034618488C
:10510000006858B300B585B000910192029305295B
:105110001CDCFFF755FE022810D000231A46694612
:105120000F480068FEF7F7FE15E04FF0500383F3D9
:105130001188BFF36F8FBFF34F8FFEE70023069AEE
:10514000694607480068FEF7E6FE04E00023624671
:105150006946FEF7A4FF05B05DF804FB0020704728
:105160005C5C002070B582B01B4B1B681A6862B390
:10517000DB681E68DC68251D2846FEF79BFA236A5B
:105180002046984794F8283013F0040FECD0A36918
:1051900033449E4207D26360246129460E4B18684F
:1051A000FEF76FFAE0E7002100910B4632462046F9
:1051B000FFF7A2FF0028D7D14FF0500383F31188E7
:1051C000BFF36F8FBFF34F8FFEE7044A10680249A9
:1051D0000860136002B070BD385B00203C5B0020AB
:1051E00038B50546FFF70EFB0446074B1B688342A4
:1051F00005D800232B60044B1C60204638BDFFF708
:10520000B1FF01232B60F6E7085C002070B582B087
:1052100006460D4617490968C968CC68201DFEF787
:1052200049FA94F828C01CF0040F08D12CF0010CA6
:1052300084F828C0236A2046984702B070BDA1694F
:1052400033462A4631442046FFF7C8FE0028F1D0F5
:10525000002100910B4632462046FFF74DFF002803
:10526000E8D14FF0500383F31188BFF36F8FBFF382
:105270004F8FFEE7385B002070B582B006460C46C3
:10528000FFF7B8FA01A8FFF7ABFF019B33BB054658
:105290000CB9B04219D224B1124A12681268DAB9B4
:1052A00001242246711B104B1868FFF735F8FFF7F1
:1052B0003BFBA8B94FF0E0234FF08052C3F8042D18
:1052C000BFF34F8FBFF36F8F0AE0FFF72DFB294627
:1052D0003046FFF79BFF03E01C46E2E7FFF724FBA5
:1052E00002B070BD3C5B00205C5C002010B588B053
:1052F00002E0049B002B0FDA002204A93D4B186842
:10530000FEF734FF002873D0049B002BF1DA0799D5
:105310000698059B9847ECE7069C636913B1201D2E
:10532000FEF7C8F903A8FFF75BFF049B092BE3D83E
:10533000DFE803F00505053037500505303794F8F0
:10534000283043F0010384F82830059BA169024608
:1053500019442046FFF742FE0028CDD0236A20469C
:10536000984794F8283013F0040FC5D0A2690021A3
:1053700000910B46059802442046FFF7BDFE002829
:10538000BAD14FF0500383F31188BFF36F8FBFF38F
:105390004F8FFEE794F8283023F0010384F828307B
:1053A000AAE794F8283043F0010384F828300599DF
:1053B000A16131B10346024601442046FFF70EFECB
:1053C0009AE74FF0500383F31188BFF36F8FBFF359
:1053D0004F8FFEE794F8283013F0020F04D023F02B
:1053E000010384F8283087E72046FEF719FC83E79D
:1053F00008B010BD5C5C002000B583B001A8FFF7C9
:10540000DDFD0199FFF738FFFFF770FFF6E70000B9
:1054100010B5D8B10346FAB1C068B0F1FF3F02D071
:105420005C68A04221D918890130B1FBF0FC00FB77
:105430001C1111805A6801325A601A891988B2EB1E
:10544000510F0FD252001A81002010BD084B094A9B
:105450002C21094802F0F8FC084B064A2D21064889
:1054600002F0F2FC19810020EFE70120EDE700BF18
:105470003CAE000810AF000854AE0008C0AE0008F3
:1054800008B528B101810280C3600023436008BDD4
:10549000024B034A5921034802F0D6FCD8AE00085B
:1054A000ECAE000854AE0008401A704702380328DA
:1054B00003D8DFE800F00A040608002070475020F7
:1054C000704762207047702070474020704778B165
:1054D00081B18AB193B143680BB1002070470023BA
:1054E000934203D2087858B90133F9E70020704796
:1054F000012070470120704701207047012070474C
:1055000001207047034668B171B1087800B16AB1F3
:105510000A690AB1CA685AB11B680BB1002070470A
:1055200040B9704701207047012070470120704743
:10553000012070470120704770B5049D1446B2FAEF
:1055400082F252090E46003918BF01218A420DD05D
:10555000220A02704470186002225A6096B164B93F
:10556000012002242B6823442B6070BD074B084A9E
:1055700040F23471074802F067FC9E60DC6014441E
:105580001046EFE701200224ECE700BF30AF00082F
:1055900054B2000858AF00082DE9F04F83B058B15D
:1055A0000C461646804671B1C16A99B14369C3B1D0
:1055B00023464FF0000A1EE03D4B3E4A40F2F221E6
:1055C0003D4802F041FC3D4B3A4A40F2F3213A4853
:1055D00002F03AFC3A4B374A4FF43D71364802F03C
:1055E00033FC384B334A40F2F621334802F02CFCAE
:1055F0005A689244083306F10057013F04EBC7078D
:105600009F42F5D2884700F59C4B0BF1200B4FF0E1
:10561000000925E0D8F8143062682168D8F81C0029
:10562000984705462DE0284B224A40F21731224880
:1056300002F00AFC002D31DAA9462FE0ED1A0834F9
:10564000013EA74202D36368AB42F7DD002D07DDC0
:10565000A74205D323682B44236063685B1B636008
:10566000CDF804A0CA451EDDB9F1000F1BDBD8F848
:105670001830002BCED032462146D8F81C0098476F
:105680000546002DD6DD019BA3EB0903AB42CADB27
:10569000A944D8F82C309847C8F83400D8F82C30F2
:1056A00098475845CDD3484603B0BDE8F08F00BFBA
:1056B000D8AE000840B2000858AF0008A8AF0008F4
:1056C000B8AF0008D4AF000800B0000810B58AB029
:1056D000BDF830C0019202934A6803920C89049489
:1056E0001C440B780BB34FEA1C238DF824308DF843
:1056F00025C009AB0593022306931C4403220B69C2
:105700005BB1CB680DF1280C0CEBC20C4CF8243CBF
:105710000B694CF8203C01321C4401A9FFF73CFF07
:10572000A04204D003200AB010BD0222E7E7002007
:10573000F9E700002DE9F047A2B080460D460021B0
:105740002191164612B15268002A5CD01DAC324637
:105750002946204601F0D6FA001B0F284ADC1DAA74
:1057600007920890219A0244219221AB009309AB41
:105770002A89696806A8FFF7DFFE09AB03EBC009B9
:1057800000F1010AA6B121AF00974B46328971683A
:1057900005A8FFF7D1FE09EBC009824400974B46EC
:1057A000328AF16804A8FFF7C7FE09EBC0098244FA
:1057B000E96849B121AB00934B462A8A03A8FFF759
:1057C000BBFE09EBC0098244696939B121AB009382
:1057D0004B462A8B02A8FFF7AFFE8244524607A928
:1057E0004046FFF7D9FE219B83420AD0032022B016
:1057F000BDE8F087054B064A40F66D01054802F00A
:1058000023FB0020F3E70120F1E700BF40B00008D0
:1058100070B2000858AF00082DE9F04F83B0A8B16E
:105820000D468046436A8B4217D3D0F82CB0BBF1AB
:10583000000F19D0D0F810A0BAF1000F1BD0066AE3
:1058400006B3D84701900027B94633E0244B254AD8
:105850004FF46F71244802F0F7FA244B214A40F2CA
:10586000BD31214802F0F0FA214B1E4A40F2BE3110
:105870001D4802F0E9FA1F4B1A4A40F2BF311A489C
:1058800002F0E2FA1C4B174A4FF47071164802F00E
:10589000DBFA1A4B134A4FF47871134802F0D4FA2A
:1058A000D8470199FFF700FE092803D9012701E035
:1058B0000127A14685B17FB92A463146D8F81C0098
:1058C000D047041EF4DBEBDDD8470190AC42E0D8B2
:1058D0002D1BA1442644EDE7484603B0BDE8F08FF8
:1058E000D8AE000804B2000858AF000868B000083D
:1058F000B8AF000894B00008C0B00008E8B00008D5
:105900002DE9F84F68B10E4693468046D0F82CA09A
:10591000BAF1000F0CD0446AD047814600273D46BB
:1059200014E0164B164A40F20B41164802F08CFA6E
:10593000154B134A40F20C41124802F085FA2146F9
:105940004046FFF769FF844208D00127B5420ED2D6
:105950006FB9731BA342F2D21C46F0E70544D0474F
:105960004946FFF7A1FD5845F0D30127EEE7B542C0
:1059700002D00420BDE8F88F0720FBE7D8AE00086E
:1059800010B2000858AF0008B8AF000884B010B5D6
:105990000DF10C0C8CE80E0068B1026A92B1059C06
:1059A000426A944215D9079A2146FFF7A9FFBDE83C
:1059B000104004B070470B4B0B4A40F28E410B482D
:1059C00002F042FA0A4B084A40F28F41074802F0BF
:1059D0003BFA2146FFF720FF844201D00420E6E78E
:1059E0000020E4E7D8AE000820B2000858AF000855
:1059F000C0B0000850280FD062280FD040280FD028
:105A0000702801D10320704708B5064B064A40F2C2
:105A1000A731064802F018FA0120704702207047AB
:105A20000020704710B10008C4B1000858AF00084A
:105A30002DE9F04170B10F4616460546C36A83B1A1
:105A40004269AAB1D9B1984700F59C4808F12008ED
:105A5000002428E0204B214A40F25331204802F034
:105A6000F3F9204B1D4A4FF455711D4802F0ECF933
:105A70001D4B1A4A40F25531194802F0E5F91B4B0B
:105A8000164A40F25631164802F0DEF9184B134A16
:105A900040F26531124802F0D7F9002817DBEB6AB3
:105AA0009847404515D2A64213DD002C11DB6B69E7
:105AB000321B3946E86998470028EEDD331B8342E4
:105AC000E4DB04440744EB6A98476863E7E704466D
:105AD000E5E72046BDE8F081D8AE000804B3000831
:105AE00058AF0008B8AF0008D4AF000838B10008BC
