:020000040800F2
:100000000000032009090008D1080008D3080008EF
:10001000D5080008D7080008D9080008000000002B
:10002000000000000000000000000000A120000807
:10003000DB0800080000000041210008DD0800087E
:100040005909000859090008590900085909000808
:1000500059090008590900085909000859090008F8
:1000600059090008590900085909000859090008E8
:1000700059090008590900085909000859090008D8
:1000800059090008590900085909000859090008C8
:1000900059090008590900085909000859090008B8
:1000A00059090008590900085909000859090008A8
:1000B0005909000859090008590900085909000898
:1000C0005909000859090008590900085909000888
:1000D0005909000859090008590900085909000878
:1000E0005909000859090008590900085909000868
:1000F0005909000859090008590900085909000858
:100100005909000859090008590900085909000847
:100110005909000859090008590900085909000837
:100120005909000859090008590900085909000827
:100130005909000859090008590900085909000817
:100140005909000859090008590900085909000807
:1001500059090008590900085909000859090008F7
:1001600059090008590900085909000859090008E7
:100170005909000859090008590900080000000041
:1001800059090008590900085909000859090008C7
:1001900059090008590900085909000859090008B7
:0C01A00059090008590900085909000815
:1001B00053B94AB9002908BF00281CBF4FF0FF31CE
:1001C0004FF0FF3000F00CB8ADF1080C6DE904CE33
:1001D00003F05CFCDDF804E0DDE9022304B07047C5
:1001E000704700BF844641EA000313F003036DD15A
:1001F000403A41D351F8043B40F8043B51F8043BEA
:1002000040F8043B51F8043B40F8043B51F8043BF0
:1002100040F8043B51F8043B40F8043B51F8043BE0
:1002200040F8043B51F8043B40F8043B51F8043BD0
:1002300040F8043B51F8043B40F8043B51F8043BC0
:1002400040F8043B51F8043B40F8043B51F8043BB0
:1002500040F8043B51F8043B40F8043B51F8043BA0
:1002600040F8043B51F8043B40F8043B51F8043B90
:1002700040F8043B403ABDD2303211D351F8043B30
:1002800040F8043B51F8043B40F8043B51F8043B70
:1002900040F8043B51F8043B40F8043B103AEDD2DF
:1002A0000C3205D351F8043B40F8043B043AF9D230
:1002B000043208D0D2071CBF11F8013B00F8013B03
:1002C00001D30B8803806046704700BF082A13D310
:1002D0008B078DD010F003038AD0C3F10403D21A28
:1002E000DB071CBF11F8013B00F8013B80D331F85C
:1002F000023B20F8023B7BE7043AD9D3013A11F8DC
:10030000013B00F8013BF9D20B7803704B78437046
:100310008B788370604670470348044B834202D059
:10032000034B03B11847704714000020140000204D
:10033000000000000548064B1B1AD90F01EBA30172
:10034000491002D0034B03B1184770471400002036
:10035000140000200000000010B5064C237843B9BB
:10036000FFF7DAFF044B13B10448AFF30080012319
:10037000237010BD1400002000000000183F00088A
:1003800008B5054B1BB105490548AFF30080BDE832
:100390000840FFF7CFBF00BF00000000180000209A
:1003A000183F0008F0B58DB0002407940894099414
:1003B0000A940B940194394B1A6B42F004021A63AD
:1003C0001A6B02F004020192019A02941A6B42F035
:1003D00080021A631A6B02F080020292029A03945E
:1003E0001A6B42F001021A631A6B02F001020392C7
:1003F000039A04941A6B42F002021A631A6B02F019
:1004000002020492049A05941A6B42F008021A63DD
:100410001A6B02F008020592059A06941A6B42F0D4
:1004200040021A631B6B03F040030693069B1C4FAC
:10043000224644F28101384600F07AFE194D2246E8
:100440004021284600F074FE4FF4005307934FF408
:1004500088130893099407A9134800F065FD44F236
:10046000810307930126089609940A9407A9384640
:1004700000F05AFD40230793089609940A9407A9AF
:10048000284600F051FD802307930894099407A99A
:10049000284600F049FD0DB0F0BD00BF0038024015
:1004A00000040240001802400008024008B5012084
:1004B00001F036FDFBE772B6FEE7000010B5144808
:1004C000144B0360144B00221A7080215970E121F3
:1004D0009970DA701A715A7143604FF400038360A7
:1004E0000E4BC3600E4B036140F2F453436100F0C6
:1004F000BBFC58B90B4C38220021204603F02AFCE3
:10050000212323604FF44003636110BDFFF7D3FF45
:10051000B40100200080024070010020D0000020C3
:10052000300000207801002008B50A480A4B03601B
:100530004FF4E133436000238360C36003610C2206
:1005400042618361C36101F059FA00B908BDFFF748
:10055000B2FF00BF700700200048004008B50B48FC
:100560004FF0A0430360042343600222C2600023D3
:10057000036182610122C26103624362C26203635A
:1005800000F0DCFD00B908BDFFF795FF6402002014
:1005900000B595B03022002108A803F0DBFB002352
:1005A000039304930593069307930193204A116CD8
:1005B00041F080511164126C02F080520192019A54
:1005C00002931C4B1A6842F440421A601B6803F401
:1005D00040430293029B012308934FF4A023099305
:1005E00002230E934FF480020F9204221092A8224D
:1005F000119212930723139308A800F037FE98B9BD
:100600000F23039302230493002305934FF4A05375
:1006100006934FF480530793052103A801F090F847
:1006200020B915B05DF804FBFFF745FFFFF743FF66
:10063000003802400070004008B500F0B5F9FFF73F
:10064000A7FFFFF7AFFEFFF739FFFFF76DFFFFF7DB
:1006500085FF01F0D9FB054A0021054801F002FCA5
:10066000044B186001F0E2FBFEE700BF3C3F0008CE
:10067000AD040008B001002000B583B00022009254
:100680000D4B596C41F480415964596C01F480411F
:10069000009100990192196C41F0805119641B6C12
:1006A00003F080530193019B0F216FF0010000F0D4
:1006B000CDF903B05DF804FB00380240F0B58DB011
:1006C00000230793089309930A930B9302683D4B09
:1006D0009A4201D00DB0F0BD00240094A3F59043E0
:1006E0001A6B42F000721A631A6B02F000720092E9
:1006F000009A01941A6B42F080621A631A6B02F03E
:1007000080620192019A02941A6B42F000621A63AD
:100710001A6B02F000620292029A03941A6B42F082
:1007200004021A631A6B02F004020392039A0494FF
:100730001A6B42F001021A631A6B02F00102049272
:10074000049A05941A6B42F002021A631A6B02F0C3
:1007500002020592059A06941A6B42F040021A634F
:100760001B6B03F040030693069B3223079302277B
:10077000089703260A960B250B9507A9124800F047
:10078000D3FB86230793089709940A960B9507A92C
:100790000E4800F0C9FB4FF40053079308970994E3
:1007A0000A960B9507A90A4800F0BEFB4FF42053A8
:1007B0000793089709940A960B9507A9054800F036
:1007C000B3FB87E7008002400008024000000240BF
:1007D000000402400018024000B589B000230393D2
:1007E00004930593069307930268154B9A4202D02F
:1007F00009B05DF804FB0021019103F5F8331A6C90
:1008000042F480221A641A6C02F480220192019A46
:1008100002911A6B42F008021A631B6B03F0080383
:100820000293029B4FF44073039302230493032328
:1008300006930723079303A9024800F075FBD7E747
:1008400000480040000C024070B588B000230393BC
:1008500004930593069307930368B3F1A04F01D067
:1008600008B070BD00250195174C236B43F00103C0
:100870002363236B03F001030193019B4FF4E853BF
:10088000039302230493032306930A2307930F4E33
:1008900003A9304600F048FB4FF40073039304951E
:1008A000059503A9304600F03FFB636B43F08003DE
:1008B00063630295636C43F480436364636C03F485
:1008C00080430293029BCBE70038024000000240C5
:1008D000FEE7FEE7FEE7FEE7FEE7704708B500F03B
:1008E0007DF802F051FE012800D108BD01F05AFC4C
:1008F000FBE70000034AD2F8883043F47003C2F8E3
:100900008830704700ED00E0DFF834D00D480E4924
:100910000E4A002302E0D458C4500433C4188C4259
:10092000F9D30B4A0B4C002301E013600432A242BE
:10093000FBD3FFF7DFFF03F05FFAFFF77DFE7047A1
:10094000000003200000002014000020A43F000845
:1009500014000020A0520020FEE7000010B504465D
:100960000E4B1A784FF47A73B3FBF2F30C4A10680B
:10097000B0FBF3F000F0A2F868B90F2C01D9012008
:100980000AE0002221464FF0FF3000F05FF8054BEF
:100990001C60002000E0012010BD00BF040000200A
:1009A000000000200800002008B50B4B1A6842F434
:1009B00000721A601A6842F480621A601A6842F47F
:1009C00080721A60032000F02FF80F20FFF7C6FF97
:1009D000FFF752FE002008BD003C0240034A1168A8
:1009E000034B1B780B441360704700BFB407002013
:1009F00004000020014B1868704700BFB4070020B6
:100A000038B50446FFF7F6FF0546B4F1FF3F02D0C4
:100A1000044B1B781C44FFF7EDFF401BA042FAD3A8
:100A200038BD00BF04000020074AD36823F4E06308
:100A30001B041B0C000200F4E060034343F0BF639F
:100A400043F40033D360704700ED00E000B5194B6C
:100A5000DB68C3F30223C3F1070CBCF1040F28BF0A
:100A60004FF0040C03F1040EBEF1060F18D9033B3E
:100A70004FF0FF3E0EFA0CFC21EA0C0199400EFAF1
:100A800003FE22EA0E020A4300280BDB1201D2B257
:100A900000F1604000F5614080F800235DF804FB40
:100AA0000023E5E700F00F001201D2B2024B1A5406
:100AB000F4E700BF00ED00E014ED00E00138B0F114
:100AC000807F0BD24FF0E0235861054AF02182F875
:100AD00023100020986107221A6170470120704797
:100AE00000ED00E05079137943EA002307480B50EA
:100AF000D07893781B0443EA0063507843EA0023DC
:100B000012781343024A8B50704700BF4080024066
:100B10004480024030B4002208E0C468DC6051F830
:100B20000C3043F4400341F80C300132032A1FD843
:100B3000C16802EB82034FEAC30C01EBC30300243C
:100B400041F80C405C609C60DC60941D40F82430EF
:100B500051F80C4044F4801441F80C40022ADCD8CF
:100B6000541C04EB8404C56805EBC404DC60D6E7C0
:100B700000238362C268036803F580531A6130BCA6
:100B8000704700B54FF0000E03E00269DA600EF125
:100B9000010EBEF1030F29D801690EEB8E034FEA57
:100BA000C30C01EBC303002241F80C205A609A6089
:100BB000DA601A625A624FF0004241F80C2044F2A7
:100BC000F8525A605A6822F000425A600EF112023E
:100BD00040F82230BEF1020FD7D801690EF10102B0
:100BE00002EB820201EBC201D960D0E70023C365AA
:100BF00003668366C36683650269036803F58053F1
:100C0000DA605DF804FB000070B505460C4602682A
:100C100013683B491940237C002B60D14FF400033B
:100C2000607C00285DD14FF480000343A06803433B
:100C3000E07F43EA004360690343A07F002852D16C
:100C40004FF400500343207F43EA0033A06903437D
:100C5000207943EA802394F82000002845D14FF4FE
:100C600000700343E07B43EAC013606A034394F8D7
:100C7000280043EA00130B4313602B681E68012011
:100C8000FFF7BEFE2B681E6029688A6922F0BE024B
:100C90001204120CA36C1B0494F84C0038BB802087
:100CA0000343206D034394F85500012821D0002010
:100CB000034394F8560001281DD00020034394F804
:100CC0005400012819D00020034313438B612B6883
:100CD0009C690120FFF794FE2B689C6170BD002386
:100CE0009EE70020A1E70020ACE70020B9E7002044
:100CF000D6E70820DCE70420E0E70220E4E700BFB5
:100D00000F8120FF70B505460C46026802F580533E
:100D10009B692B491940237B002B4DD14FF08063F9
:100D2000607B43EA4063607F002847D14FF4801026
:100D30000343A07B43EA405360690343207F43EAB7
:100D4000C013A07F43EA8013206A034394F8240071
:100D500043EA80030B4302F5805293612B6803F54D
:100D600080539E690120FFF74BFE2B6803F58053EB
:100D70009E612279A36843EA4263A2691343226910
:100D8000134394F8252043EAC213A26A43EA82037C
:100D9000226813432A6843F4000302F5805213606B
:100DA0002B6803F580531C680120FFF729FE2B6890
:100DB00003F580531C6070BD0023B1E70020B7E746
:100DC000233FDEF870B5A4B0064601258DF83C50EF
:100DD0008DF83D5000240D948DF84B408DF84A500D
:100DE0008DF848408DF830508DF84C408DF83B40E0
:100DF00014948DF854401D948DF878401F948DF80C
:100E000082408DF880404FF4804310934FF400638C
:100E100011938DF881400BA9FFF7F6FE8DF80C5069
:100E20008DF80D508DF81D508DF80E5005948DF8ED
:100E30001C408DF81E4008948DF824508DF8045005
:100E40004FF4803302934FF4800306934FF4005322
:100E500004938DF825500A94009469463046FFF7B4
:100E600051FF24B070BD0000002857D030B583B0CA
:100E70000446D0F88430002B34D000230193284B53
:100E80005A6C42F480425A645B6C03F480430193D1
:100E9000019B244B5A6822F400025A605A68A168E8
:100EA0000A435A605B68236803F580531A6842F06E
:100EB00001021A60FFF79EFD0546236803F5805383
:100EC0001B6813F0010F13D0FFF794FD401BB0F522
:100ED000FA7FF2D90423C4F88830E023C4F88430C0
:100EE000012019E02323C0F88430FFF7E7FBC4E7B3
:100EF0002046FFF767FF2046FFF70CFE2046FFF76E
:100F000040FE626800212046FFF7ECFD0020C4F897
:100F100088001023C4F8843003B030BD012070472E
:100F2000003802400038014000230F2B00F2F68009
:100F300070B582B066E085684FEA430E032404FA78
:100F40000EF425EA0405CC6804FA0EF42C43846000
:100F5000446824EA02044A68C2F300129A40224319
:100F600042605DE0DC08083450F8242003F00705F7
:100F7000AD004FF00F0E0EFA05FE22EA0E0E0A69C2
:100F8000AA4042EA0E0240F824205DE0092200E077
:100F9000002202FA0EF22A430234614D45F8242061
:100FA000604A94686FEA0C0224EA0C054E6816F455
:100FB000801F01D04CEA04055A4CA560E46802EA9F
:100FC00004054E6816F4001F01D04CEA0405554C88
:100FD000E560646802EA04054E6816F4003F01D03B
:100FE0004CEA04054F4C6560246822404D6815F4B6
:100FF000803F01D04CEA04024A4C226001330F2B9F
:1010000000F28A8001229A400C6804EA020C32EA5B
:101010000404F3D14C6804F00304013C012C8AD988
:101020004A6802F00302032A09D0C4685D00032263
:10103000AA4024EA02048A68AA402243C2604A689D
:1010400002F00302022A8DD004684FEA430E032205
:1010500002FA0EF224EA02044A6802F0030202FADB
:101060000EF2224302604A6812F4403FC6D00022CA
:1010700001922D4A546C44F480445464526C02F43E
:1010800080420192019A9C08A51C254A52F82550DD
:1010900003F0030E4FEA8E0E0F2202FA0EF225EA3B
:1010A0000205224A90423FF473AF02F580629042FB
:1010B00022D002F58062904220D002F580629042F8
:1010C0001ED002F5806290421CD002F580629042F0
:1010D0001AD002F58062904218D002F580629042E8
:1010E00016D002F58062904214D002F580629042E0
:1010F0003FF44CAF0A224CE701224AE7022248E7BC
:10110000032246E7042244E7052242E7062240E79D
:1011100007223EE708223CE702B070BD704700BFDF
:1011200000380140003C014000380240000002400D
:101130000AB18161704709048161704770B58AB056
:10114000002800F090800546046890F8BD343BB359
:10115000032385F8BD34E36B13F4807F01D10023B2
:101160002B61286800F0E7FC2C4654F8106BEC4625
:101170000FCCACE80F000FCCACE80F0094E80300F4
:101180008CE803002B1D0ECB304600F08FFC04468C
:1011900058B1022385F8BD34012420460AB070BD41
:1011A00080F8BC34FFF750FBD2E70021286800F03C
:1011B000F9FD234616E003EBC30205EB8202012191
:1011C00082F83D1082F83C30A2F84430002182F8C9
:1011D00040109164D16403EBC30205EB82025165B8
:1011E0000133DBB269688B42E5D316E004EBC4033C
:1011F00005EB8303002283F87D2283F87C4283F889
:101200008022C3F88822C3F88C2204EBC40305EBC8
:101210008303C3F894220134E4B2A142E6D82C46F9
:1012200054F8106BEC460FCCACE80F000FCCACE8D8
:101230000F0094E803008CE803002B1D0ECB304612
:1012400000F0D6FC044620B1022385F8BD34012409
:10125000A3E7002385F83830012385F8BD342868DA
:1012600000F08EFD99E7012497E70000002800F0C8
:10127000E08170B582B00446036813F0010F3BD0E3
:101280009F4B9B6803F00C03042B2CD09C4B9B685A
:1012900003F00C03082B21D06368B3F5803F4FD0D7
:1012A000B3F5A02F52D0964B1A6822F480321A6000
:1012B0001A6822F480221A606368002B50D0FFF76E
:1012C00099FB05468E4B1B6813F4003F14D1FFF7C2
:1012D00091FB401B6428F5D90320B1E1884B5B6882
:1012E00013F4800FD8D0864B1B6813F4003F03D053
:1012F0006368002B00F09F81236813F0020F54D025
:101300007F4B9B6813F00C0F3ED07D4B9B6803F026
:101310000C03082B33D0E368002B68D0794B0122F3
:101320001A60FFF767FB0546754B1B6813F0020F49
:1013300054D1FFF75FFB401B0228F5D903207FE162
:101340006F4A136843F480331360B5E76C4B1A6837
:1013500042F480221A601A6842F480321A60ABE7C5
:10136000FFF748FB0546664B1B6813F4003FC3D0EC
:10137000FFF740FB401B6428F5D9032060E1604B78
:101380005B6813F4800FC6D15D4B1B6813F0020F2E
:1013900003D0E368012B40F05081594A136823F0D1
:1013A000F803216943EAC1031360236813F0080FAF
:1013B00042D063696BB3534B0122C3F8802EFFF711
:1013C00019FB05464E4B5B6F13F0020F34D1FFF74C
:1013D00011FB401B0228F5D9032031E1484A13686C
:1013E00023F0F803216943EAC1031360DDE7454BAD
:1013F00000221A60FFF7FEFA0546414B1B6813F006
:10140000020FD2D0FFF7F6FA401B0228F5D90320CD
:1014100016E13C4B0022C3F8802EFFF7EBFA05469D
:10142000374B5B6F13F0020F06D0FFF7E3FA401B58
:101430000228F5D9032003E1236813F0040F77D0C5
:101440002F4B1B6C13F0805F33D1002301932C4B87
:101450001A6C42F080521A641B6C03F080530193A3
:10146000019B0125284B1B6813F4807F23D0A368C0
:10147000012B34D0052B38D0214B1A6F22F00102FA
:101480001A671A6F22F004021A67A368002B3DD076
:10149000FFF7B0FA06461A4B1B6F13F0020F46D146
:1014A000FFF7A8FA801B41F288339842F3D9032052
:1014B000C6E00025D6E7144A136843F4807313602E
:1014C000FFF798FA0646104B1B6813F4807FCED1C5
:1014D000FFF790FA801B0228F5D90320B0E0084AF4
:1014E000136F43F001031367CFE7054B1A6F42F008
:1014F00004021A671A6F42F001021A67C5E700BFBB
:10150000003802400000474200700040FFF772FAC6
:101510000646524B1B6F13F0020F08D0FFF76AFA12
:10152000801B41F288339842F3D9032088E0EDB95B
:10153000A369002B00F08380484A926802F00C02F5
:10154000082A51D0022B17D0454B00221A66FFF70C
:1015500051FA0446414B1B6813F0007F42D0FFF75D
:1015600049FA001B0228F5D9032069E03B4A136CB5
:1015700023F080531364DBE7394B00221A66FFF730
:1015800039FA0546354B1B6813F0007F06D0FFF78C
:1015900031FA401B0228F5D9032051E0E369226AA1
:1015A0001343626A43EA8213A26A5208013A43EA89
:1015B0000243E26A43EA0263284A5360284B01224D
:1015C0001A66FFF717FA0446244B1B6813F0007FD6
:1015D00006D1FFF70FFA001B0228F5D903202FE0F0
:1015E00000202DE000202BE0012B2BD01B4B5B6853
:1015F00003F48001E269914226D103F03F02216A9F
:101600008A4223D1616A47F6C0721A40B2EB811F49
:101610001ED103F44031A26A5208013AB1EB024FE5
:1016200018D103F07063E26AB3EB026F14D10020AB
:1016300006E001207047012002E0012000E00020C8
:1016400002B070BD0120FBE70120F9E70120F7E7B8
:101650000120F5E70120F3E70120F1E7003802401F
:101660000000474208B5334B9B6803F00C03042B82
:101670005BD0082B5BD12F4B5A6802F03F025B68AE
:1016800013F4800F2CD02B4B5868C0F388104FEA0E
:10169000401CBCEB000C6EEB0E0E4FEA8E1343EABF
:1016A0009C634FEA8C11B1EB0C0163EB0E03DB0082
:1016B00043EA5173C90011EB000C43F100035902D6
:1016C00000234FEA4C2041EADC51FEF771FD194B33
:1016D0005B68C3F3014301335B00B0FBF3F027E029
:1016E000144B5868C0F388104FEA401CBCEB000C48
:1016F0006EEB0E0E4FEA8E1343EA9C634FEA8C1199
:10170000B1EB0C0163EB0E03DB0043EA5173C9003C
:1017100011EB000C43F10003990200234FEA8C20E7
:1017200041EA9C51FEF744FDD1E7034800E003483D
:1017300008BD00BF0038024000127A000024F40007
:10174000002800F09B8070B50D4604464F4B1B6887
:1017500003F00F038B4208D2CBB24C4A13701368CC
:1017600003F00F038B4240F08B80236813F0020FCD
:1017700017D013F0040F04D0454A936843F4E053A4
:101780009360236813F0080F04D0414A936843F430
:10179000604393603E4A936823F0F003A1680B43D3
:1017A0009360236813F0010F32D06368012B21D0BE
:1017B0009A1E012A25D9364A126812F0020F61D00A
:1017C00033498A6822F0030213438B60FFF712F952
:1017D00006462F4B9B6803F00C036268B3EB820F45
:1017E00016D0FFF707F9801B41F288339842F0D9F1
:1017F000032042E0264A126812F4003FE0D10120A3
:101800003BE0234A126812F0007FD9D1012034E076
:101810001E4B1B6803F00F03AB4207D9EAB21B4B08
:101820001A701B6803F00F03AB422DD1236813F02D
:10183000040F06D0164A936823F4E053E1680B4383
:101840009360236813F0080F07D0114A936823F4BC
:101850006043216943EAC1039360FFF703FF0C4B28
:101860009B68C3F303130B4AD35CD8400A4B186040
:101870000A4B1868FFF772F8002070BD012070470E
:101880000120FAE70120F8E70120F6E7003C0240DA
:1018900000380240603F00080000002008000020DF
:1018A000014B1868704700BF0000002008B5FFF723
:1018B000F7FF044B9B68C3F38223034AD35CD840F1
:1018C00008BD00BF00380240703F000808B5FFF7B0
:1018D000E7FF044B9B68C3F34233034AD35CD84011
:1018E00008BD00BF00380240703F000810B5044634
:1018F0000268136923F44053C1680B431361836882
:1019000002691A4343691A43C3691A430168CB68E1
:1019100023F4164323F00C031343CB60026853698E
:1019200023F4407381690B4353610368314A934246
:1019300006D002F58062934202D0FFF7B7FF01E0C4
:10194000FFF7C4FFE369B3F5004F29D00021031866
:1019500049411B1841F10001C90041EA5371DB0004
:10196000181863684FEA83024FEA937341F100014C
:10197000FEF71EFC204AA2FB00314909642303FB49
:1019800011031B013233A2FB03235B0903F0F002B6
:1019900002EB011203F00F03216813448B6010BDAA
:1019A0000023021843EB0301121841F10001C900A2
:1019B00041EA5271D200101841F100016268921898
:1019C0005B41FEF7F5FB0C4AA2FB00314909642399
:1019D00003FB1103DB003233A2FB03235B095A0034
:1019E00002F4F87202EB011203F0070321681344BA
:1019F0008B60D4E7001001401F85EB5158B310B540
:101A0000044690F83D300BB3242384F83D3022681F
:101A1000D36823F40053D3602046FFF767FF2268A2
:101A2000136923F4904313612268536923F02A0356
:101A300053612268D36843F40053D36000202064CC
:101A4000202384F83D3084F83E3010BD80F83C30CF
:101A5000FEF7C2FED8E701207047000082B00023E5
:101A60000193019B01330193019A0F4B9A4215D8C0
:101A70000369002BF5DA00230193036943F00103A6
:101A80000361019B01330193019A074B9A4208D8E5
:101A9000036913F0010FF4D1002000E0032002B02D
:101AA00070470320FBE700BF400D030084B010B572
:101AB000044603A880E80E00089B012B1FD1A36BEE
:101AC00023F48033A363E36823F4840323F0400307
:101AD000E360E36823F44013E3600F9B012B09D01C
:101AE0002046FFF7BBFF069B012B1BD0BDE8104033
:101AF00004B07047E36843F48013E360F0E7E36801
:101B000043F04003E3602046FFF7A8FF0C9B23B996
:101B1000A36B43F48033A363E5E7A36B23F4803323
:101B2000A363E0E7A36843F00603A360A36843F060
:101B30002003A360DAE7836823F0010383600020B9
:101B40007047000082B000230193019B0133019391
:101B5000019A0F4B9A4215D80369002BF5DA00233E
:101B60000193890141F020010161019B013301933F
:101B7000019A074B9A4208D8036913F0200FF4D159
:101B8000002000E0032002B070470320FBE700BF05
:101B9000400D030082B000230193019B01330193A8
:101BA000019A0E4B9A4213D80369002BF5DA0023F1
:101BB000019310230361019B01330193019A074BA9
:101BC0009A4208D8036913F0100FF4D1002000E006
:101BD000032002B070470320FBE700BF400D030065
:101BE000D0F800381943C0F80018002070470000F2
:101BF00084B02DE9F041044607A880E80E000023D8
:101C000006E003F1400204EB82020021516001333F
:101C10000E2BF6D9119F27BBD4F8043843F00203EA
:101C2000C4F80438A36B43F40013A363A36B23F439
:101C30000023A363A36B23F48023A3630023C4F8CE
:101C4000003E04F50065D4F80038C4F800380C9B59
:101C5000012B14D1099B6BB900212046FFF7C0FF6F
:101C600011E0A36B23F40013A363A36B43F40023DD
:101C7000A363E3E701212046FFF7B2FF03E003215E
:101C80002046FFF7ADFF10212046FFF75BFF80469F
:101C900008B14FF001082046FFF77CFF08B14FF074
:101CA000010800232B616B61EB610AE0C3B94FF0BF
:101CB0000060C2F8000900220A614FF67F328A6094
:101CC00001330799994210D904EB431202F51061D0
:101CD000D2F800090028E9DB0020C2F80009EAE791
:101CE0004FF09040C2F80009E5E700230AE0C3B1D5
:101CF0004FF0904CC2F800CB002202614FF67F32C9
:101D000082600133994211D904EB431202F530602D
:101D1000D2F8006B002EEADB4FF0000CC2F800CBCB
:101D2000EAE74FF0006CC2F800CBE5E72B6923F43B
:101D300080732B610023A3616FF0804363610A9B72
:101D40001BB9A36943F01003A361A2690B4B1343B2
:101D5000A3610D9B1BB1A36943F00803A361012F8D
:101D600004D04046BDE8F04104B07047A36943F099
:101D7000804343F00403A361F3E700BF00383C80D5
:101D8000D0F8003E23F00303C0F8003ED0F804383A
:101D900043F00203C0F8043800207047406900F0A7
:101DA0000100704738B50546C36823F0C043C360DF
:101DB000012913D019BBC36843F08043C3600024DA
:101DC0000120FEF71DFE01342846FFF7E7FF08B1AA
:101DD000312CF5D9322C14D0002038BDC36843F023
:101DE0000053C36000240120FEF70AFE0134284698
:101DF000FFF7D4FF0128EDD0312CF4D9EAE7012018
:101E0000EBE70120E9E70000EFF305832BB9064B70
:101E1000186828B901221A6070476FF005007047F2
:101E20004FF0FF30704700BF140A0020EFF3058326
:101E300073B90A4B1B68012B0DD110B50024084B58
:101E4000DC77064B02221A6001F0FCF8204610BD38
:101E50006FF0050070474FF0FF307047140A002004
:101E600000ED00E0F0B587B000240594EFF30584A1
:101E700074BB68B322B31568936903B918235C1E59
:101E8000372C49D8546814F0010F47D156696EB108
:101E90004FEA960C94682CB1D7685B2F02D917696A
:101EA00007B1C6B92CB14FF0FF340EE04FF0800CF3
:101EB000F0E7D4688CB9146994B14FF0FF3404E0B2
:101EC0001546002418234FF0800C012C0AD0ACB129
:101ED000059807B0F0BD0124F7E74FF0FF34F4E7B1
:101EE0000024F2E7146992680292019400930B4671
:101EF0006246294601F036F80590E9E705AA019205
:101F000000930B461FFA8CF2294601F066F801286F
:101F1000DED000230593DBE70020DAE70020D8E7D6
:101F200008B5EFF3058333B908B9002008BD01F007
:101F3000EDF90020FAE76FF00500F7E7034B0360C7
:101F4000034B0B6080231360704700BFB80900206B
:101F5000B8070020034B0360034B0B604FF4807302
:101F600013607047180E0020180A002000F10803C3
:101F700043604FF0FF328260C3600361002303605F
:101F8000704700230361704743684B609A688A601A
:101F9000516099600861036801330360704730B491
:101FA0000D68B5F1FF3F11D000F108031C465B68D6
:101FB0001A68AA42FAD963684B6099608C606160C4
:101FC000086103680133036030BC70470469F2E7BD
:101FD0000369416882688A60416851605A68824238
:101FE00006D0002202611A68013A1A601868704728
:101FF00082685A60F5E7000082B0002301930D4B20
:102000001B68B3F1FF3F08D04FF0500383F31188F2
:10201000BFF36F8FBFF34F8FFEE74FF0500383F393
:102020001188BFF36F8FBFF34F8F019B002BFCD044
:1020300002B070470C00002008480068006880F378
:1020400008884FF0000080F3148862B661B6BFF3D1
:102050004F8FBFF36F8F00DF00BF000008ED00E07F
:10206000DFF80C00016841F4700101607047000066
:1020700088ED00E04FF0807340F8043C21F001014E
:1020800040F8081C054B40F80C3C40F8202C6FF041
:10209000020340F8243C4438704700BFF91F000891
:1020A000074B19680868B0E8F04F80F30988BFF360
:1020B0006F8F4FF0000080F311887047AFF30080FE
:1020C000DC4A00204FF0500383F31188BFF36F8F79
:1020D000BFF34F8F0B4A136801331360012B00D0FD
:1020E00070474FF0E023D3F8043D13F0FF0FF7D013
:1020F0004FF0500383F31188BFF36F8FBFF34F8FFF
:10210000FEE700BF0C000020094B1B6843B94FF0ED
:10211000500383F31188BFF36F8FBFF34F8FFEE738
:10212000013B034A13600BB983F31188704700BF6A
:102130000C00002000000000000000000000000073
:10214000EFF30980BFF36F8F154B1A681EF0100F65
:1021500008BF20ED108A20E9F04F10602DE909003A
:102160004FF0500080F31188BFF34F8FBFF36F8F94
:1021700001F0F2F84FF0000080F3118809BC1968F3
:102180000868B0E8F04F1EF0100F08BFB0EC108ADE
:1021900080F30988BFF36F8F704700BFAFF30080F3
:1021A000DC4A002008B54FF0500383F31188BFF3D9
:1021B0006F8FBFF34F8F00F0A1FF28B14FF0E023E6
:1021C0004FF08052C3F8042D002383F3118808BD1B
:1021D0004FF0E022002313619361054B1B68054912
:1021E000A1FB03139B09013B536107231361704754
:1021F00000000020D34D62104FF0E023D3F8002DF3
:102200003D4B9A421CD04FF0E023D3F8002D3B4BBE
:102210009A421ED030B583B0394B1A78D2B20192AF
:10222000FF221A701B78DBB28DF803309DF8033063
:1022300003F05003334A1370334B07221A601BE03C
:102240004FF0500383F31188BFF36F8FBFF34F8FAD
:10225000FEE74FF0500383F31188BFF36F8FBFF396
:102260004F8FFEE7284A1368013B13609DF8033047
:102270005B00DBB28DF803309DF8033013F0800F64
:10228000F0D1214B1B68032B08D04FF0500383F390
:102290001188BFF36F8FBFF34F8FFEE71B021A4AFF
:1022A000136003F4E0631360019BDBB2144A137004
:1022B0004FF0E024D4F8203D43F47003C4F8203DEF
:1022C000D4F8203D43F07043C4F8203DFFF780FF71
:1022D00000250E4B1D60FFF7C3FED4F8343F43F0DA
:1022E0004043C4F8343FFFF7A7FE01F035F8FFF78D
:1022F00083FE284603B030BD71C20F4170C20F414A
:1023000000E400E0740E0020780E00200C00002095
:10231000EFF305830F2B0FD9114A9B5CDBB2114AF7
:1023200012789A4208D94FF0500383F31188BFF313
:102330006F8FBFF34F8FFEE74FF0E023D3F80C3DD4
:1023400003F4E063084A1268934208D94FF050033F
:1023500083F31188BFF36F8FBFF34F8FFEE7704792
:10236000F0E300E0740E0020780E0020124A12F014
:10237000070F1ED0D11D21F00701C1F57053134482
:102380000A460E480260002141601344083B23F0D6
:1023900007030B48036059601960991A5160136074
:1023A000084B1960084B1960084B4FF000421A6047
:1023B00070474FF47053E4E7800E0020944A0020E9
:1023C0007C0E0020884A0020844A0020804A002099
:1023D000164B1A461B688342FBD3516802EB010C73
:1023E000844509D0416800EB010C634509D00360C6
:1023F000904219D010607047406801445160104607
:10240000F0E710B40A4C2468A3420BD05B6819446F
:10241000416013681B680360904200D010605DF853
:10242000044B70470460F7E7704700BF944A0020F0
:102430007C0E002070B5054600F052FE364B1B683E
:10244000A3B1364B1B681D424ED135B1083515F08E
:10245000070F02D025F007050835002D46D0304B78
:102460001B68AB4251D32F4A146804E0FFF77EFF8C
:10247000E7E722461C466368AB4202D22368002B82
:10248000F7D1254B1B68A34241D016680836236854
:10249000136063685B1B102B10D9601910F0070FD5
:1024A00008D04FF0500383F31188BFF36F8FBFF351
:1024B0004F8FFEE743606560FFF78AFF6268184947
:1024C0000B689B1A0B60184909688B4201D21649A8
:1024D0000B60124B1B681343636000232360134A95
:1024E00013680133136002E0002600E0002600F0CC
:1024F00091FE16F0070F0CD04FF0500383F31188B4
:10250000BFF36F8FBFF34F8FFEE70026EFE7002684
:10251000EDE7304670BD00BF7C0E0020804A0020F1
:10252000844A0020944A0020884A00208C4A0020D7
:10253000002834D038B50446A0F1080550F8043C12
:10254000174A1268134208D14FF0500383F31188E1
:10255000BFF36F8FBFF34F8FFEE750F8081C41B1F8
:102560004FF0500383F31188BFF36F8FBFF34F8F8A
:10257000FEE723EA020340F8043C00F0B1FD54F802
:10258000041C084A13680B4413602846FFF720FF19
:10259000054A13680133136000F03CFE38BD7047F4
:1025A000804A0020844A0020904A002010B504464A
:1025B000FFF788FDA26BE36B9A4204D00024FFF77B
:1025C000A3FD204610BD0124F9E710B50446FFF72E
:1025D00079FDA36B23B90124FFF796FD204610BDBA
:1025E0000024F9E770B504461546866B026C5AB9AB
:1025F00003681BB100200136A66370BD806800F03F
:10260000D3FF0023A360F6E76DB94068FDF7EAFD4C
:10261000226C636813446360A268934219D32368F1
:1026200063602846E7E7C068FDF7DCFD226C514295
:10263000E3689B1AE3602268934202D2A3680B44CA
:10264000E360022D01D00020D5E726B1013E002035
:10265000D1E72846CFE70020CDE70346026C6AB1F8
:1026600010B50846D9681144D9609C68A14201D3CD
:102670001968D960D968FDF7B5FD10BD704738B548
:102680000546FFF71FFD95F8454064B201E0013CA7
:1026900064B2002C0ADD6B6A43B105F1240000F03E
:1026A000D9FE0028F3D000F069FFF0E7FF2385F89A
:1026B0004530FFF729FDFFF705FD95F8444064B26A
:1026C00001E0013C64B2002C0ADD2B6943B105F145
:1026D000100000F0BFFE0028F3D000F04FFFF0E73D
:1026E000FF2385F84430FFF70FFD38BD38B5E0B162
:1026F0000D460446FFF7E6FC2368E26B216C01FB04
:102700000230A0600020A0636360013A02FB013345
:10271000E360FF2384F8443084F84530FDB9236931
:1027200063B9FFF7F1FC012038BD4FF0500383F38C
:102730001188BFF36F8FBFF34F8FFEE704F11000D6
:1027400000F088FE0028ECD04FF0E0234FF08052DC
:10275000C3F8042DBFF34F8FBFF36F8FE1E704F190
:102760001000FFF703FC04F12400FFF7FFFBD8E79C
:1027700038B51D46049C0B4649B92460E0632364C8
:1027800001212046FFF7B2FF84F84C5038BD22608B
:10279000F4E740B94FF0500383F31188BFF36F8F14
:1027A000BFF34F8FFEE710B584B01C46844653B18B
:1027B00092B189B94FF0500383F31188BFF36F8F43
:1027C000BFF34F8FFEE74FF0500383F31188BFF341
:1027D0006F8FBFF34F8FFEE76AB150230393039BC4
:1027E000502B13D04FF0500383F31188BFF36F8F3A
:1027F000BFF34F8FFEE70029EFD04FF0500383F374
:102800001188BFF36F8FBFF34F8FFEE7039B012348
:1028100084F8463000949DF818306046FFF7A8FF12
:10282000204604B010BDF0B585B0019288B10F46C6
:102830001D460446B1B1022D20D1E36B012B1DD002
:102840004FF0500383F31188BFF36F8FBFF34F8FA7
:10285000FEE74FF0500383F31188BFF36F8FBFF390
:102860004F8FFEE7036C002BE5D04FF0500383F34E
:102870001188BFF36F8FBFF34F8FFEE700F084FE28
:10288000064658B9019B002B48D04FF0500383F304
:102890001188BFF36F8FBFF34F8FFEE700263DE037
:1028A0002A4639462046FFF79DFE636A7BB948B148
:1028B0004FF0E0234FF08052C3F8042DBFF34F8F49
:1028C000BFF36F8FFFF720FC012005B0F0BD04F1CE
:1028D000240000F0BFFD0028F4D04FF0E0234FF0BB
:1028E0008052C3F8042DBFF34F8FBFF36F8FE9E71A
:1028F000FFF70AFC0020E8E702A800F0F1FD01263E
:1029000019E0002384F8443021E0002384F84530A6
:1029100023E02046FFF7B3FE00F07CFCFFF7D2FB7C
:10292000A26BE36B9A42BBD3022DB9D0019B002B63
:10293000DED0002EE0D0FFF7E7FB00F0D1FBFFF781
:10294000C1FB94F8442052B2B2F1FF3FD9D094F8C1
:10295000452052B2B2F1FF3FD7D0FFF7D5FB01A916
:1029600002A800F0C9FDD8B92046FFF71FFE0028D5
:10297000CFD0019904F1100000F038FD2046FFF798
:102980007EFE00F047FC0028C8D14FF0E0234FF056
:102990008052C3F8042DBFF34F8FBFF36F8FBDE795
:1029A0002046FFF76CFE00F035FC00208DE72DE996
:1029B000F84390B10F4616461C460546B1B1022CAD
:1029C00020D1EB6B012B1DD04FF0500383F3118806
:1029D000BFF36F8FBFF34F8FFEE74FF0500383F3CA
:1029E0001188BFF36F8FBFF34F8FFEE7036C002B8F
:1029F000E5D04FF0500383F31188BFF36F8FBFF31F
:102A00004F8FFEE7FFF784FCEFF311884FF0500380
:102A100083F31188BFF36F8FBFF34F8FAA6BEB6BFC
:102A20009A4206D3022C04D0002088F31188BDE816
:102A3000F88395F845904FFA89F9AB6B22463946F1
:102A40002846FFF7CFFDB9F1FF3F06D009F101039A
:102A50005BB285F845300120E7E76B6A0BB90120CE
:102A6000E3E705F1240000F0F5FC18B126B10120E0
:102A70003060DAE70120D8E70120D6E7F0B585B06D
:102A8000019290B10F460446C1B100F07DFD0646AB
:102A900000BB019B002B5ED04FF0500383F31188E5
:102AA000BFF36F8FBFF34F8FFEE74FF0500383F3F9
:102AB0001188BFF36F8FBFF34F8FFEE7036C002BBE
:102AC000E3D04FF0500383F31188BFF36F8FBFF350
:102AD0004F8FFEE700263EE039462046FFF7BDFD5A
:102AE000013DA563236923B9FFF70EFB012005B063
:102AF000F0BD04F1100000F0ADFC0028F4D04FF060
:102B0000E0234FF08052C3F8042DBFF34F8FBFF383
:102B10006F8FE9E7FFF7F8FA0020E8E702A800F076
:102B2000DFFC012621E0002384F8443029E0002363
:102B300084F845302BE02046FFF7A1FD00F06AFB4A
:102B400009E02046FFF79BFD00F064FB2046FFF7FD
:102B50003CFD00283FD1FFF7B5FAA56B002DBBD196
:102B6000019B002BD6D0002ED8D0FFF7CDFA00F075
:102B7000B7FAFFF7A7FA94F844305BB2B3F1FF3F1E
:102B8000D1D094F845305BB2B3F1FF3FCFD0FFF71F
:102B9000BBFA01A902A800F0AFFC0028D1D1204661
:102BA000FFF713FD0028C6D0019904F1240000F0BE
:102BB0001DFC2046FFF763FD00F02CFB0028CAD166
:102BC0004FF0E0234FF08052C3F8042DBFF34F8F36
:102BD000BFF36F8FBFE7002089E700000023072BBA
:102BE0000CD8074A52F833200AB10133F7E7044AF8
:102BF00042F8331002EBC30250607047704700BFC9
:102C00009C4A002070B504460D461646FFF75AFA56
:102C100094F844305BB2B3F1FF3F0DD094F84530E7
:102C20005BB2B3F1FF3F0BD0FFF76EFAA36B5BB162
:102C30002046FFF724FD70BD002384F84430EDE703
:102C4000002384F84530EFE73246294604F124009A
:102C500000F0E4FBECE70000084B1B681B6823B99D
:102C6000074B4FF0FF321A607047044B1B68DB685C
:102C7000DB685A68024B1A60704700BFE04A0020C8
:102C8000884F00202DE9F04780460D4617469946AB
:102C9000089EDDF824A00A9C9200A521206B01F07B
:102CA00059F8236B07F18042013A03EB820727F0C2
:102CB0000707A5B34FF0000CBCF10F0F09D815F8AA
:102CC0000C3004EB0C0282F8343013B10CF1010C1F
:102CD000F2E7002384F84330372E00D93726E66226
:102CE000E66400252565201DFFF74BF904F1180067
:102CF000FFF747F92461C6F13806A661646265658D
:102D000084F858504A4641463846FFF7B3F92060E8
:102D1000BAF1000F01D0CAF80040BDE8F0870023E7
:102D200084F83430D8E7000038B5002407E004EB1D
:102D3000840293000E481844FFF718F90134372C29
:102D4000F5D90C4D2846FFF711F90B4C2046FFF73B
:102D50000DF90A48FFF70AF90948FFF707F909488A
:102D6000FFF704F9084B1D60084B1C6038BD00BF1D
:102D7000E84A00205C4F0020704F0020944F002054
:102D8000C04F0020AC4F0020E04A0020E44A002061
:102D900010B50446FFF796F9224A13680133136011
:102DA000214B1B685BB1214B1B686BB91E4B1B6829
:102DB000DA6AE36A9A4207D81B4B1C6004E01A4B9C
:102DC0001C601368012B29D0194A13680133136062
:102DD0006364E06A174B1B68984201D9154B186071
:102DE00000EB8000211D144B03EB8000FFF7CCF8B3
:102DF000FFF78AF90D4B1B687BB10B4B1B68DA6A36
:102E0000E36A9A4209D24FF0E0234FF08052C3F8B0
:102E1000042DBFF34F8FBFF36F8F10BDFFF784FFFB
:102E2000D2E700BF484F0020DC4A0020A84F002016
:102E3000544F0020584F0020E84A002010B50446A7
:102E400090F8593063B1012B11D0022B0ED04FF006
:102E5000500383F31188BFF36F8FBFF34F8FFEE7EB
:102E6000006BFFF765FB2046FFF762FB10BDFFF725
:102E70005FFBFBE70F4B1B68D3B110B5FFF722F9DF
:102E80000D4BDB68DC68201DFFF7A2F80B4A1368C6
:102E9000013B1360074A1368013B1360FFF734F9E5
:102EA0002046FFF7CBFF034B1B68002BE6D110BD7C
:102EB000704700BF4C4F0020C04F0020484F0020FB
:102EC00008B5FFF7D7FF074B1B68012BF9D94FF067
:102ED000E0234FF08052C3F8042DBFF34F8FBFF3B0
:102EE0006F8FEEE7E84A002070B504460D46174B99
:102EF0001E68174B18680430FFF76AF8B4F1FF3FFB
:102F00000DD03444124B1B685C60A64210D9114BA3
:102F100018680F4B19680431FFF741F870BD002D98
:102F2000EFD00B4B196804310B48FFF72DF8F5E78C
:102F30000A4B1868064B19680431FFF730F8084B44
:102F40001B68A342EAD9064B1C60E7E7D44F002078
:102F5000DC4A0020E44A0020AC4F0020E04A002078
:102F6000884F002030B587B00B9C7CB10C9DB5B16B
:102F70005C250495049D5C2D1AD04FF0500383F31B
:102F80001188BFF36F8FBFF34F8FFEE74FF05003F1
:102F900083F31188BFF36F8FBFF34F8FFEE74FF0BE
:102FA000500383F31188BFF36F8FBFF34F8FFEE79A
:102FB000049D0C9D2C63022485F859400024039441
:102FC000029505AC01940A9C0094FFF75BFE0C98F7
:102FD000FFF7DEFE059807B030BD2DE9F04385B060
:102FE0000746884614461E469000FFF723FA00B3B2
:102FF00081465C20FFF71EFA0546B0B1C0F830905C
:10300000E5B1002385F85930039302950D9B019398
:103010000C9B00933346224641463846FFF732FE6A
:103020002846FFF7B5FE012005E04846FFF780FA85
:10303000E6E74FF0FF3005B0BDE8F0834FF0FF301A
:10304000F9E7000010B588B000240594069407AA9B
:1030500006A905A8FEF772FF059B0293069B019344
:1030600000942346079A18491848FFF77BFF184B2E
:10307000186040B100F04CFB012806D0B0F1FF3FD2
:1030800018D008B010BD0020F6E74FF0500383F3CE
:103090001188BFF36F8FBFF34F8F0E4B4FF0FF328E
:1030A0001A600D4B01221A600C4B00221A60FFF7C8
:1030B000A3F8E6E74FF0500383F31188BFF36F8F57
:1030C000BFF34F8FFEE700BF783F0008C12E000816
:1030D000844F0020884F0020A84F0020D44F0020AC
:1030E000024A136801331360704700BF504F00203D
:1030F000014B1868704700BFD44F0020F8B53A4B19
:103100001B68002B69D1394B1D6801351D60C5B99D
:10311000374B1B681B6843B14FF0500383F3118892
:10312000BFF36F8FBFF34F8FFEE7314A1168314B0A
:10313000186810601960304A136801331360FFF794
:103140008BFD2E4B1B68AB423DD900272C4B1B68D7
:10315000DB6A03EB83039A002A4B9B58012B00D9AF
:103160000127294B1B68002B3CD001273AE001279F
:103170001F4B1B681B6843B31D4B1B68DB68DC6877
:1031800063689D4226D3261D3046FEF721FFA36AC1
:103190001BB104F11800FEF71BFFE36A1B4A12681B
:1031A000934201D9194A136003EB83039A00314615
:1031B00014481044FEF7E8FEE26A114B1B68DB6A14
:1031C0009A42D4D2D4E70027D2E70C4B4FF0FF321B
:1031D0001A60BBE7094A1360B8E70D4A1368013368
:1031E000136000273846F8BD504F0020D44F002010
:1031F000E04A0020E44A00208C4F0020884F002045
:10320000DC4A0020E84A0020D84F0020584F002018
:10321000904F002038B5354B1B6843B94FF0500331
:1032200083F31188BFF36F8FBFF34F8FFEE7FEF775
:1032300049FF2E4B1A68013A1A601B68002B4FD1C8
:103240002B4B1B680BB900244BE00024294B1B6857
:103250001BB3284BDB68DC6804F11800FEF7B8FEEE
:10326000251D2846FEF7B4FEE06A234B1B689842F2
:1032700001D9214B186000EB800029461F4B03EB5E
:103280008000FEF781FEE26A1D4B1B68DB6A9A42F2
:10329000DCD31C4B01221A60D8E70CB1FFF7DCFC31
:1032A000194B1C6884B9174B1C68D4B14FF0E0234C
:1032B0004FF08052C3F8042DBFF34F8FBFF36F8FD1
:1032C00001240EE0013C07D0FFF718FF0028F9D0D9
:1032D0000C4B01221A60F5E70B4B00221A60E2E763
:1032E0000024FEF711FF204638BD00BF504F0020DC
:1032F000484F0020944F0020584F0020E84A0020FB
:10330000DC4A0020D84F0020904F002010B5A8B113
:103310000446104B1B6843B14FF0500383F31188F0
:10332000BFF36F8FBFF34F8FFEE7FFF7D9FE00218A
:103330002046FFF7D9FDFFF76DFF48B94FF0E023B6
:103340004FF08052C3F8042DBFF34F8FBFF36F8F40
:1033500010BD00BF504F00201F4B1B681BB11F4BFF
:1033600001221A6070471D4B00221A601C4B1B681B
:1033700003EB83018A001B498A585AB90BB1013B00
:10338000F6E74FF0500383F31188BFF36F8FBFF35D
:103390004F8FFEE703EB830082000A4450684068C9
:1033A000506003EB830C4FEA8C02083211448842D0
:1033B0000BD003EB830291000A4A0A445268D16899
:1033C000094A1160064A13607047406862469100DE
:1033D000044A0A445060ECE7504F0020D84F0020C8
:1033E000584F0020E84A0020DC4A002058B110B5B0
:1033F0000C46094A11681831FEF7D1FD012120461B
:10340000FFF772FD10BD4FF0500383F31188BFF337
:103410006F8FBFF34F8FFEE7DC4A002038B570B1E5
:103420000D4614460A4A11681831FEF7ADFD0CB17D
:103430004FF0FF3521462846FFF756FD38BD4FF0C7
:10344000500383F31188BFF36F8FBFF34F8FFEE7F5
:10345000DC4A002038B5C368DC6824B304F11805E1
:103460002846FEF7B5FD184B1B682BBB251D2846CB
:10347000FEF7AEFDE06A154B1B68984201D9134B6D
:10348000186000EB80002946114B03EB8000FEF72B
:103490007BFDE26A0F4B1B68DB6A9A4211D901205F
:1034A0000D4B186038BD4FF0500383F31188BFF304
:1034B0006F8FBFF34F8FFEE729460848FEF764FD84
:1034C000E7E70020EEE700BF504F0020584F0020F4
:1034D000E84A0020DC4A0020D84F0020944F00200A
:1034E000034B1B680360034B1B684360704700BFBE
:1034F0008C4F0020D44F0020F8B5C8B10C460546CB
:10350000F9B1FEF7DFFD1B4B19686B68C81A22681A
:10351000B2F1FF3F26D0184E36682F68B74201D06F
:103520008B4224D9824215D80023236001241AE05B
:103530004FF0500383F31188BFF36F8FBFF34F8FAA
:10354000FEE74FF0500383F31188BFF36F8FBFF393
:103550004F8FFEE75B1A134423602846FFF7C0FF36
:10356000002400E00024FEF7CFFD2046F8BD012432
:10357000F9E700BFD44F00208C4F0020014B0122FF
:103580001A607047D84F0020054B1B6833B1054BBC
:103590001B680BB100207047022070470120704764
:1035A000A84F0020504F002000283BD038B50446DB
:1035B0001E4B1B68834208D04FF0500383F31188E1
:1035C000BFF36F8FBFF34F8FFEE7036D43B94FF02B
:1035D000500383F31188BFF36F8FBFF34F8FFEE764
:1035E000013B0365C16AC26C91421DD00BB1002042
:1035F00038BD051D2846FEF7EBFCE06CE062C0F12B
:103600003803A3610A4B1B68984201D9084B186024
:1036100000EB80002946074B03EB8000FEF7B4FC6B
:103620000120E5E7002070470020E1E7DC4A0020A8
:10363000584F0020E84A0020064B1A6813682BB93F
:103640000123036023B9D368186870470023F8E7A3
:1036500000207047DC4F002008B5416000619142B6
:103660000CD8D21A83699A4201D3012008BD011DEA
:10367000094B1868FEF793FC0020F7E79A4201D245
:10368000994206D2011D054B1868FEF788FC002000
:10369000ECE70120EAE700BFE04F0020DC4F00200C
:1036A00030B583B0FEF70EFD114B1B681BB1FEF762
:1036B0002BFD03B030BD0F4D2846FEF757FC0E4CD6
:1036C0002046FEF753FC0D4B1D600D4B1C60002384
:1036D00000930C4B0C4A10210A20FFF75AF8044BB8
:1036E00018600028E3D00949FFF778FADFE700BF48
:1036F000005100208450002098500020DC4F002012
:10370000E04F0020B0500020E44F0020803F000830
:1037100010B588B0FFF7C4FF124B1B68CBB1002473
:103720000594069407AA06A905A8FEF713FC059BB5
:103730000293069B0193022300932346079A0A49AA
:103740000A48FFF70FFC0A4B186010B1012008B0BF
:1037500010BD4FF0500383F31188BFF36F8FBFF399
:103760004F8FFEE700510020883F0008753A00089F
:1037700004510020B8B19C4603461848006858B36D
:1037800000B585B000910192029305291CDCFFF77A
:10379000FBFE022810D000231A4669460F48006835
:1037A000FFF741F815E04FF0500383F31188BFF3A2
:1037B0006F8FBFF34F8FFEE70023069A69460748D5
:1037C0000068FFF730F804E0002362466946FFF71F
:1037D000EEF805B05DF804FB0020704700510020B2
:1037E00070B582B01B4B1B681A6862B3DB681E6839
:1037F000DC68251D2846FEF7EBFB236A2046984728
:1038000094F8283013F0040FECD0A36933449E429F
:1038100007D26360246129460E4B1868FEF7BFFB90
:10382000E0E7002100910B4632462046FFF7A2FF59
:103830000028D7D14FF0500383F31188BFF36F8F67
:10384000BFF34F8FFEE7044A106802490860136017
:1038500002B070BDDC4F0020E04F002038B50546B7
:10386000FFF746FC0446074B1B68834205D800233C
:103870002B60044B1C60204638BDFFF7B1FF0123CD
:103880002B60F6E7AC50002070B582B006460D46BE
:1038900017490968C968CC68201DFEF799FB94F8A0
:1038A00028C01CF0040F08D12CF0010C84F828C0AB
:1038B000236A2046984702B070BDA16933462A4664
:1038C00031442046FFF7C8FE0028F1D000210091C6
:1038D0000B4632462046FFF74DFF0028E8D14FF057
:1038E000500383F31188BFF36F8FBFF34F8FFEE751
:1038F000DC4F002070B582B006460C46FFF7F0FBA7
:1039000001A8FFF7ABFF019B33BB05460CB9B042E2
:1039100019D224B1124A12681268DAB90124224677
:10392000711B104B1868FFF76DF9FFF773FCA8B90E
:103930004FF0E0234FF08052C3F8042DBFF34F8FB8
:10394000BFF36F8F0AE0FFF765FC29463046FFF7AB
:103950009BFF03E01C46E2E7FFF75CFC02B070BD92
:10396000E04F00200051002010B588B002E0049B19
:10397000002B0FDA002204A93D4B1868FFF77EF8F0
:10398000002873D0049B002BF1DA07990698059B59
:103990009847ECE7069C636913B1201DFEF718FBFE
:1039A00003A8FFF75BFF049B092BE3D8DFE803F0D4
:1039B0000505053037500505303794F8283043F0B9
:1039C000010384F82830059BA1690246194420466A
:1039D000FFF742FE0028CDD0236A2046984794F88E
:1039E000283013F0040FC5D0A269002100910B46C6
:1039F000059802442046FFF7BDFE0028BAD14FF0DB
:103A0000500383F31188BFF36F8FBFF34F8FFEE72F
:103A100094F8283023F0010384F82830AAE794F8BA
:103A2000283043F0010384F828300599A16131B1B1
:103A30000346024601442046FFF70EFE9AE74FF088
:103A4000500383F31188BFF36F8FBFF34F8FFEE7EF
:103A500094F8283013F0020F04D023F0010384F807
:103A6000283087E72046FEF763FD83E708B010BDE6
:103A70000051002000B583B001A8FFF7DDFD0199DA
:103A8000FFF738FFFFF770FFF6E700002DE9F0477A
:103A9000089E0D4604460F46002B4AD18A429446A2
:103AA00065D9B2FA82F343B102FA03FCC3F12002F2
:103AB0009F4020FA02F217439C404FEA1C4E1FFA27
:103AC0008CF5B7FBFEF1220C0EFB117742EA0742A0
:103AD00001FB05F090420AD91CEB020201F1FF370D
:103AE00080F01C81904240F2198102396244121A1E
:103AF000A4B2B2FBFEF00EFB102244EA024400FB2B
:103B000005F5A5420AD91CEB040400F1FF3280F050
:103B10000781A54240F204816444023840EA014032
:103B2000641B00211EB1DC400023C6E90043BDE850
:103B3000F0878B4208D9002E00F0ED800021C6E905
:103B400000050846BDE8F087B3FA83F1002949D1A2
:103B5000AB4202D3824200F2F880841A65EB030282
:103B600001201746002EE2D0C6E90047DFE702B980
:103B7000FFDEB2FA82F3002B40F090808A1A4FEAFF
:103B80001C471FFA8CFE0121B2FBF7F507FB15203D
:103B9000220C42EA00420EFB05F0904208D91CEBD1
:103BA000020205F1FF3802D2904200F2CB80454676
:103BB000121AA4B2B2FBF7F007FB102244EA024447
:103BC0000EFB00FEA64508D91CEB040400F1FF32F1
:103BD00002D2A64500F2BB801046A4EB0E0440EAD8
:103BE00005409FE7C1F120078B4022FA07FC4CEA11
:103BF000030C05FA01F420FA07F3FD404FEA1C49D3
:103C00002343B5FBF9F81FFA8CFE09FB18551C0C71
:103C100044EA054408FB0EF5A54202FA01F200FA57
:103C200001F00BD91CEB040408F1FF3A80F0888006
:103C3000A54240F28580A8F102086444641B9DB24D
:103C4000B4FBF9F309FB134445EA044403FB0EFEFD
:103C5000A64508D91CEB040403F1FF356CD2A64538
:103C60006AD9023B644443EA0843A3FB0295A4EBF0
:103C70000E04AC42C846AE4656D353D056B1B0EB54
:103C8000080264EB0E0404FA07F7CA40CC4017435D
:103C9000C6E9007418460021BDE8F087C3F1200191
:103CA00002FA03FC20FA01F225FA01F19D402A43B1
:103CB0004FEA1C471FFA8CFEB1FBF7F007FB10150B
:103CC000110C41EA054100FB0EF58D4204FA03F4A4
:103CD00008D91CEB010100F1FF382FD28D422DD9FC
:103CE00002386144491B92B2B1FBF7F507FB15118D
:103CF00042EA014205FB0EF1914208D91CEB020297
:103D000005F1FF3816D2914214D9023D6244521A8D
:103D100045EA004138E73146304608E73946E6E6ED
:103D20001046FBE64845A9D2B9EB020865EB0C0E3C
:103D3000013BA3E74546EAE72B4694E74046D1E737
:103D4000D0467BE7023D624432E708460AE7644416
:103D5000023842E7830730B548D0541E002A3FD0CE
:103D6000CAB2034601E0013C3AD303F8012B9D0798
:103D7000F9D1032C2DD9CDB245EA05250F2C45EA02
:103D8000054536D9A4F1100222F00F0C03F1200EE4
:103D9000E6444FEA121C03F1100242E9045542E9DD
:103DA000025510327245F8D10CF1010214F00C0FDB
:103DB00003EB021204F00F0C13D0ACF1040323F058
:103DC00003030433134442F8045B9342FBD10CF029
:103DD00003042CB1C9B21C4403F8011B9C42FBD163
:103DE00030BD64461346002CF4D1F9E7034614466F
:103DF000BFE71A46A446E0E770B50D4E0D4D761BA1
:103E0000B61006D0002455F8043B01349847A6426A
:103E1000F9D1094E094D761B00F07EF8B61006D098
:103E2000002455F8043B01349847A642F9D170BDEF
:103E3000983F0008983F0008A03F0008983F0008FE
:103E4000704700BF704700BF024B13B1024800F03B
:103E500005B8704700000000693E000800230146D5
:103E60001A46184600F014B838B5074D074C2C1BFD
:103E7000A41005D0013C55F8043D9847002CF9D119
:103E8000BDE8384000F04EB8A43F0008A03F00084D
:103E90002DE9F047DFF87CA00646DAF800009846E6
:103EA0000F469146FFF7CCFF184B1C6824B365689A
:103EB0001F2D24DC5EB96B1C0235DAF8000063604C
:103EC00044F82570FFF7BEFF0020BDE8F08704EB43
:103ED00085010123C1F88890D4F88821AB401A43AA
:103EE000022EC4F88821C1F80881E4D1D4F88C21CD
:103EF0001A43C4F88C21DEE7054C1C60D7E7DAF8DA
:103F00000000FFF79FFF4FF0FF30DEE70C5100206D
:103F10001051002010000020F8B500BFF8BC08BC0C
:103F20009E467047F8B500BFF8BC08BC9E46704777
:103F300064656661756C745461736B00303F000892
:103F40000000000000000000000000000000000071
:103F50000002000018000000000000000000000047
:103F60000000000000000000010203040607080929
:103F7000000000000102030449444C450000000019
:103F8000546D725100000000546D7220537663002E
:083F9000FCFAFF7F01000000B4
:083F9800493E00088103000806
:043FA00059030008B9
:103FA4000024F4000100000010000000AAAAAAAA3C
:043FB4000851002090
:0400000508000909DD
:00000001FF
